{
  "_format": "hh-sol-artifact-1",
  "contractName": "CMORegistry",
  "sourceName": "contracts/CMORegistry.sol",
  "abi": [
    {
      "inputs": [
        {
          "internalType": "string",
          "name": "_tokenUri",
          "type": "string"
        }
      ],
      "stateMutability": "nonpayable",
      "type": "constructor"
    },
    {
      "anonymous": false,
      "inputs": [
        {
          "indexed": true,
          "internalType": "address",
          "name": "account",
          "type": "address"
        },
        {
          "indexed": true,
          "internalType": "address",
          "name": "operator",
          "type": "address"
        },
        {
          "indexed": false,
          "internalType": "bool",
          "name": "approved",
          "type": "bool"
        }
      ],
      "name": "ApprovalForAll",
      "type": "event"
    },
    {
      "anonymous": false,
      "inputs": [
        {
          "indexed": true,
          "internalType": "address",
          "name": "previousOwner",
          "type": "address"
        },
        {
          "indexed": true,
          "internalType": "address",
          "name": "newOwner",
          "type": "address"
        }
      ],
      "name": "OwnershipTransferred",
      "type": "event"
    },
    {
      "anonymous": false,
      "inputs": [
        {
          "indexed": false,
          "internalType": "string",
          "name": "_cid",
          "type": "string"
        },
        {
          "indexed": false,
          "internalType": "address payable[]",
          "name": "_owners",
          "type": "address[]"
        },
        {
          "indexed": false,
          "internalType": "uint8[]",
          "name": "_shares",
          "type": "uint8[]"
        }
      ],
      "name": "RightRegistered",
      "type": "event"
    },
    {
      "anonymous": false,
      "inputs": [
        {
          "indexed": true,
          "internalType": "address",
          "name": "payer",
          "type": "address"
        },
        {
          "indexed": false,
          "internalType": "uint256",
          "name": "value",
          "type": "uint256"
        }
      ],
      "name": "RightsPaymentReceived",
      "type": "event"
    },
    {
      "anonymous": false,
      "inputs": [
        {
          "indexed": true,
          "internalType": "address",
          "name": "actor",
          "type": "address"
        },
        {
          "indexed": true,
          "internalType": "uint256",
          "name": "tokenId",
          "type": "uint256"
        },
        {
          "indexed": false,
          "internalType": "uint256",
          "name": "price",
          "type": "uint256"
        }
      ],
      "name": "TokenPriceUpdated",
      "type": "event"
    },
    {
      "anonymous": false,
      "inputs": [
        {
          "indexed": true,
          "internalType": "address",
          "name": "actor",
          "type": "address"
        },
        {
          "indexed": true,
          "internalType": "uint256",
          "name": "tokenId",
          "type": "uint256"
        },
        {
          "indexed": false,
          "internalType": "uint256",
          "name": "oldMin",
          "type": "uint256"
        },
        {
          "indexed": false,
          "internalType": "uint256",
          "name": "oldMax",
          "type": "uint256"
        },
        {
          "indexed": false,
          "internalType": "uint256",
          "name": "newMin",
          "type": "uint256"
        },
        {
          "indexed": false,
          "internalType": "uint256",
          "name": "newMax",
          "type": "uint256"
        }
      ],
      "name": "TokenRangeUpdated",
      "type": "event"
    },
    {
      "anonymous": false,
      "inputs": [
        {
          "indexed": true,
          "internalType": "address",
          "name": "operator",
          "type": "address"
        },
        {
          "indexed": true,
          "internalType": "address",
          "name": "from",
          "type": "address"
        },
        {
          "indexed": true,
          "internalType": "address",
          "name": "to",
          "type": "address"
        },
        {
          "indexed": false,
          "internalType": "uint256[]",
          "name": "ids",
          "type": "uint256[]"
        },
        {
          "indexed": false,
          "internalType": "uint256[]",
          "name": "values",
          "type": "uint256[]"
        }
      ],
      "name": "TransferBatch",
      "type": "event"
    },
    {
      "anonymous": false,
      "inputs": [
        {
          "indexed": true,
          "internalType": "address",
          "name": "operator",
          "type": "address"
        },
        {
          "indexed": true,
          "internalType": "address",
          "name": "from",
          "type": "address"
        },
        {
          "indexed": true,
          "internalType": "address",
          "name": "to",
          "type": "address"
        },
        {
          "indexed": false,
          "internalType": "uint256",
          "name": "id",
          "type": "uint256"
        },
        {
          "indexed": false,
          "internalType": "uint256",
          "name": "value",
          "type": "uint256"
        }
      ],
      "name": "TransferSingle",
      "type": "event"
    },
    {
      "anonymous": false,
      "inputs": [
        {
          "indexed": false,
          "internalType": "string",
          "name": "value",
          "type": "string"
        },
        {
          "indexed": true,
          "internalType": "uint256",
          "name": "id",
          "type": "uint256"
        }
      ],
      "name": "URI",
      "type": "event"
    },
    {
      "inputs": [
        {
          "internalType": "address",
          "name": "account",
          "type": "address"
        },
        {
          "internalType": "uint256",
          "name": "id",
          "type": "uint256"
        }
      ],
      "name": "balanceOf",
      "outputs": [
        {
          "internalType": "uint256",
          "name": "",
          "type": "uint256"
        }
      ],
      "stateMutability": "view",
      "type": "function"
    },
    {
      "inputs": [
        {
          "internalType": "address[]",
          "name": "accounts",
          "type": "address[]"
        },
        {
          "internalType": "uint256[]",
          "name": "ids",
          "type": "uint256[]"
        }
      ],
      "name": "balanceOfBatch",
      "outputs": [
        {
          "internalType": "uint256[]",
          "name": "",
          "type": "uint256[]"
        }
      ],
      "stateMutability": "view",
      "type": "function"
    },
    {
      "inputs": [
        {
          "internalType": "uint256",
          "name": "min",
          "type": "uint256"
        },
        {
          "internalType": "uint256",
          "name": "max",
          "type": "uint256"
        }
      ],
      "name": "createTokenWithRange",
      "outputs": [],
      "stateMutability": "nonpayable",
      "type": "function"
    },
    {
      "inputs": [],
      "name": "getRightsCids",
      "outputs": [
        {
          "internalType": "string[]",
          "name": "cids",
          "type": "string[]"
        }
      ],
      "stateMutability": "view",
      "type": "function"
    },
    {
      "inputs": [
        {
          "internalType": "string",
          "name": "_cid",
          "type": "string"
        }
      ],
      "name": "getRightsOwnersForCid",
      "outputs": [
        {
          "components": [
            {
              "internalType": "address payable[]",
              "name": "owners",
              "type": "address[]"
            },
            {
              "internalType": "uint8[]",
              "name": "shares",
              "type": "uint8[]"
            }
          ],
          "internalType": "struct CMORegistry.RegistrationInfo",
          "name": "_copyrightInfo",
          "type": "tuple"
        }
      ],
      "stateMutability": "view",
      "type": "function"
    },
    {
      "inputs": [
        {
          "internalType": "address",
          "name": "account",
          "type": "address"
        },
        {
          "internalType": "address",
          "name": "operator",
          "type": "address"
        }
      ],
      "name": "isApprovedForAll",
      "outputs": [
        {
          "internalType": "bool",
          "name": "",
          "type": "bool"
        }
      ],
      "stateMutability": "view",
      "type": "function"
    },
    {
      "inputs": [],
      "name": "noOfTokens",
      "outputs": [
        {
          "internalType": "uint256",
          "name": "",
          "type": "uint256"
        }
      ],
      "stateMutability": "view",
      "type": "function"
    },
    {
      "inputs": [],
      "name": "numOfCids",
      "outputs": [
        {
          "internalType": "uint256",
          "name": "",
          "type": "uint256"
        }
      ],
      "stateMutability": "view",
      "type": "function"
    },
    {
      "inputs": [],
      "name": "owner",
      "outputs": [
        {
          "internalType": "address",
          "name": "",
          "type": "address"
        }
      ],
      "stateMutability": "view",
      "type": "function"
    },
    {
      "inputs": [
        {
          "internalType": "address",
          "name": "",
          "type": "address"
        },
        {
          "internalType": "uint256",
          "name": "",
          "type": "uint256"
        }
      ],
      "name": "ownersToRights",
      "outputs": [
        {
          "internalType": "string",
          "name": "",
          "type": "string"
        }
      ],
      "stateMutability": "view",
      "type": "function"
    },
    {
      "inputs": [
        {
          "internalType": "string[]",
          "name": "_cids",
          "type": "string[]"
        }
      ],
      "name": "payRights",
      "outputs": [],
      "stateMutability": "payable",
      "type": "function"
    },
    {
      "inputs": [
        {
          "internalType": "uint256",
          "name": "",
          "type": "uint256"
        }
      ],
      "name": "priceRanges",
      "outputs": [
        {
          "internalType": "uint256",
          "name": "min",
          "type": "uint256"
        },
        {
          "internalType": "uint256",
          "name": "max",
          "type": "uint256"
        },
        {
          "internalType": "bool",
          "name": "exists",
          "type": "bool"
        }
      ],
      "stateMutability": "view",
      "type": "function"
    },
    {
      "inputs": [
        {
          "internalType": "uint256",
          "name": "",
          "type": "uint256"
        }
      ],
      "name": "prices",
      "outputs": [
        {
          "internalType": "uint256",
          "name": "",
          "type": "uint256"
        }
      ],
      "stateMutability": "view",
      "type": "function"
    },
    {
      "inputs": [],
      "name": "renounceOwnership",
      "outputs": [],
      "stateMutability": "nonpayable",
      "type": "function"
    },
    {
      "inputs": [
        {
          "internalType": "uint256",
          "name": "",
          "type": "uint256"
        }
      ],
      "name": "rightsCids",
      "outputs": [
        {
          "internalType": "string",
          "name": "",
          "type": "string"
        }
      ],
      "stateMutability": "view",
      "type": "function"
    },
    {
      "inputs": [
        {
          "internalType": "address",
          "name": "from",
          "type": "address"
        },
        {
          "internalType": "address",
          "name": "to",
          "type": "address"
        },
        {
          "internalType": "uint256[]",
          "name": "ids",
          "type": "uint256[]"
        },
        {
          "internalType": "uint256[]",
          "name": "amounts",
          "type": "uint256[]"
        },
        {
          "internalType": "bytes",
          "name": "data",
          "type": "bytes"
        }
      ],
      "name": "safeBatchTransferFrom",
      "outputs": [],
      "stateMutability": "nonpayable",
      "type": "function"
    },
    {
      "inputs": [
        {
          "internalType": "address",
          "name": "from",
          "type": "address"
        },
        {
          "internalType": "address",
          "name": "to",
          "type": "address"
        },
        {
          "internalType": "uint256",
          "name": "id",
          "type": "uint256"
        },
        {
          "internalType": "uint256",
          "name": "amount",
          "type": "uint256"
        },
        {
          "internalType": "bytes",
          "name": "data",
          "type": "bytes"
        }
      ],
      "name": "safeTransferFrom",
      "outputs": [],
      "stateMutability": "nonpayable",
      "type": "function"
    },
    {
      "inputs": [
        {
          "internalType": "address",
          "name": "operator",
          "type": "address"
        },
        {
          "internalType": "bool",
          "name": "approved",
          "type": "bool"
        }
      ],
      "name": "setApprovalForAll",
      "outputs": [],
      "stateMutability": "nonpayable",
      "type": "function"
    },
    {
      "inputs": [
        {
          "internalType": "uint256",
          "name": "tokenId",
          "type": "uint256"
        },
        {
          "internalType": "uint256",
          "name": "priceInWei",
          "type": "uint256"
        }
      ],
      "name": "setTokenPrice",
      "outputs": [],
      "stateMutability": "nonpayable",
      "type": "function"
    },
    {
      "inputs": [
        {
          "internalType": "string",
          "name": "newuri",
          "type": "string"
        }
      ],
      "name": "setURI",
      "outputs": [],
      "stateMutability": "nonpayable",
      "type": "function"
    },
    {
      "inputs": [
        {
          "internalType": "string",
          "name": "_cid",
          "type": "string"
        },
        {
          "internalType": "address payable[]",
          "name": "_owners",
          "type": "address[]"
        },
        {
          "internalType": "uint8[]",
          "name": "_shares",
          "type": "uint8[]"
        }
      ],
      "name": "submitCid",
      "outputs": [],
      "stateMutability": "nonpayable",
      "type": "function"
    },
    {
      "inputs": [
        {
          "internalType": "bytes4",
          "name": "interfaceId",
          "type": "bytes4"
        }
      ],
      "name": "supportsInterface",
      "outputs": [
        {
          "internalType": "bool",
          "name": "",
          "type": "bool"
        }
      ],
      "stateMutability": "view",
      "type": "function"
    },
    {
      "inputs": [
        {
          "internalType": "uint256",
          "name": "",
          "type": "uint256"
        }
      ],
      "name": "tokenIds",
      "outputs": [
        {
          "internalType": "uint256",
          "name": "",
          "type": "uint256"
        }
      ],
      "stateMutability": "view",
      "type": "function"
    },
    {
      "inputs": [
        {
          "internalType": "uint256",
          "name": "",
          "type": "uint256"
        }
      ],
      "name": "tokenSupply",
      "outputs": [
        {
          "internalType": "uint256",
          "name": "",
          "type": "uint256"
        }
      ],
      "stateMutability": "view",
      "type": "function"
    },
    {
      "inputs": [],
      "name": "totalReceivedAmount",
      "outputs": [
        {
          "internalType": "uint256",
          "name": "",
          "type": "uint256"
        }
      ],
      "stateMutability": "view",
      "type": "function"
    },
    {
      "inputs": [
        {
          "internalType": "address",
          "name": "newOwner",
          "type": "address"
        }
      ],
      "name": "transferOwnership",
      "outputs": [],
      "stateMutability": "nonpayable",
      "type": "function"
    },
    {
      "inputs": [
        {
          "internalType": "uint256",
          "name": "tokenId",
          "type": "uint256"
        },
        {
          "internalType": "uint256",
          "name": "newMin",
          "type": "uint256"
        },
        {
          "internalType": "uint256",
          "name": "newMax",
          "type": "uint256"
        }
      ],
      "name": "updateTokenWithRange",
      "outputs": [],
      "stateMutability": "nonpayable",
      "type": "function"
    },
    {
      "inputs": [
        {
          "internalType": "uint256",
          "name": "",
          "type": "uint256"
        }
      ],
      "name": "uri",
      "outputs": [
        {
          "internalType": "string",
          "name": "",
          "type": "string"
        }
      ],
      "stateMutability": "view",
      "type": "function"
    }
  ],
  "bytecode": "0x60806040523480156200001157600080fd5b50604051620058943803806200589483398181016040528101906200003791906200024a565b80806200004a816200010460201b60201c565b5060006200005d6200012060201b60201c565b905080600360006101000a81548173ffffffffffffffffffffffffffffffffffffffff021916908373ffffffffffffffffffffffffffffffffffffffff1602179055508073ffffffffffffffffffffffffffffffffffffffff16600073ffffffffffffffffffffffffffffffffffffffff167f8be0079c531659141344cd1fd0a4f28419497f9722a3daafe3b4186f6b6457e060405160405180910390a3505050620003c0565b80600290805190602001906200011c92919062000128565b5050565b600033905090565b82805462000136906200032c565b90600052602060002090601f0160209004810192826200015a5760008555620001a6565b82601f106200017557805160ff1916838001178555620001a6565b82800160010185558215620001a6579182015b82811115620001a557825182559160200191906001019062000188565b5b509050620001b59190620001b9565b5090565b5b80821115620001d4576000816000905550600101620001ba565b5090565b6000620001ef620001e984620002c3565b6200028f565b9050828152602081018484840111156200020857600080fd5b62000215848285620002f6565b509392505050565b600082601f8301126200022f57600080fd5b815162000241848260208601620001d8565b91505092915050565b6000602082840312156200025d57600080fd5b600082015167ffffffffffffffff8111156200027857600080fd5b62000286848285016200021d565b91505092915050565b6000604051905081810181811067ffffffffffffffff82111715620002b957620002b862000391565b5b8060405250919050565b600067ffffffffffffffff821115620002e157620002e062000391565b5b601f19601f8301169050602081019050919050565b60005b8381101562000316578082015181840152602081019050620002f9565b8381111562000326576000848401525b50505050565b600060028204905060018216806200034557607f821691505b602082108114156200035c576200035b62000362565b5b50919050565b7f4e487b7100000000000000000000000000000000000000000000000000000000600052602260045260246000fd5b7f4e487b7100000000000000000000000000000000000000000000000000000000600052604160045260246000fd5b6154c480620003d06000396000f3fe6080604052600436106101b65760003560e01c8063916ec087116100ec578063e01e23ab1161008a578063eb685c4711610064578063eb685c471461067d578063f242432a146106a6578063f2fde38b146106cf578063f4092646146106f8576101b6565b8063e01e23ab146105d8578063e5ff8c5214610603578063e985e9c514610640576101b6565b8063bc31c1c1116100c6578063bc31c1c11461050a578063cfeaf37014610547578063d58778d614610570578063d9ee5a70146105ad576101b6565b8063916ec0871461047b5780639c6cd4ec146104b8578063a22cb465146104e1576101b6565b80632eb2c2d6116101595780635af4cafb116101335780635af4cafb146103e5578063715018a6146104105780637cc497de146104275780638da5cb5b14610450576101b6565b80632eb2c2d61461035457806336e9b3441461037d5780634e1273f4146103a8576101b6565b80630e89341c116101955780630e89341c1461025e57806317c770f31461029b57806323b57928146102d85780632693ebf214610317576101b6565b8062fdd58e146101bb57806301ffc9a7146101f857806302fe530514610235575b600080fd5b3480156101c757600080fd5b506101e260048036038101906101dd91906139ff565b610714565b6040516101ef9190614c15565b60405180910390f35b34801561020457600080fd5b5061021f600480360381019061021a9190613ae8565b6107dd565b60405161022c9190614905565b60405180910390f35b34801561024157600080fd5b5061025c60048036038101906102579190613b3a565b6108bf565b005b34801561026a57600080fd5b5061028560048036038101906102809190613c12565b610947565b6040516102929190614965565b60405180910390f35b3480156102a757600080fd5b506102c260048036038101906102bd9190613b3a565b6109db565b6040516102cf9190614bf3565b60405180910390f35b3480156102e457600080fd5b506102ff60048036038101906102fa9190613c12565b610b1f565b60405161030e93929190614c59565b60405180910390f35b34801561032357600080fd5b5061033e60048036038101906103399190613c12565b610b56565b60405161034b9190614c15565b60405180910390f35b34801561036057600080fd5b5061037b60048036038101906103769190613875565b610b6e565b005b34801561038957600080fd5b50610392610f64565b60405161039f9190614c15565b60405180910390f35b3480156103b457600080fd5b506103cf60048036038101906103ca9190613a3b565b610f6a565b6040516103dc91906148ac565b60405180910390f35b3480156103f157600080fd5b506103fa61111b565b6040516104079190614c15565b60405180910390f35b34801561041c57600080fd5b50610425611121565b005b34801561043357600080fd5b5061044e60048036038101906104499190613b7b565b61125e565b005b34801561045c57600080fd5b506104656115df565b60405161047291906147ad565b60405180910390f35b34801561048757600080fd5b506104a2600480360381019061049d9190613c12565b611609565b6040516104af9190614965565b60405180910390f35b3480156104c457600080fd5b506104df60048036038101906104da9190613c3b565b6116b5565b005b3480156104ed57600080fd5b50610508600480360381019061050391906139c3565b61187d565b005b34801561051657600080fd5b50610531600480360381019061052c9190613c12565b6119fe565b60405161053e9190614c15565b60405180910390f35b34801561055357600080fd5b5061056e60048036038101906105699190613c77565b611a16565b005b34801561057c57600080fd5b5061059760048036038101906105929190613c12565b611bb1565b6040516105a49190614c15565b60405180910390f35b3480156105b957600080fd5b506105c2611bd5565b6040516105cf919061488a565b60405180910390f35b3480156105e457600080fd5b506105ed611d8a565b6040516105fa9190614c15565b60405180910390f35b34801561060f57600080fd5b5061062a600480360381019061062591906139ff565b611d90565b6040516106379190614965565b60405180910390f35b34801561064c57600080fd5b5061066760048036038101906106629190613839565b611e49565b6040516106749190614905565b60405180910390f35b34801561068957600080fd5b506106a4600480360381019061069f9190613c3b565b611edd565b005b3480156106b257600080fd5b506106cd60048036038101906106c89190613934565b612027565b005b3480156106db57600080fd5b506106f660048036038101906106f19190613810565b61233f565b005b610712600480360381019061070d9190613aa7565b6124eb565b005b60008073ffffffffffffffffffffffffffffffffffffffff168373ffffffffffffffffffffffffffffffffffffffff161415610785576040517f08c379a000000000000000000000000000000000000000000000000000000000815260040161077c90614a33565b60405180910390fd5b60008083815260200190815260200160002060008473ffffffffffffffffffffffffffffffffffffffff1673ffffffffffffffffffffffffffffffffffffffff16815260200190815260200160002054905092915050565b60007fd9b67a26000000000000000000000000000000000000000000000000000000007bffffffffffffffffffffffffffffffffffffffffffffffffffffffff1916827bffffffffffffffffffffffffffffffffffffffffffffffffffffffff191614806108a857507f0e89341c000000000000000000000000000000000000000000000000000000007bffffffffffffffffffffffffffffffffffffffffffffffffffffffff1916827bffffffffffffffffffffffffffffffffffffffffffffffffffffffff1916145b806108b857506108b782612990565b5b9050919050565b6108c76129fa565b73ffffffffffffffffffffffffffffffffffffffff166108e56115df565b73ffffffffffffffffffffffffffffffffffffffff161461093b576040517f08c379a000000000000000000000000000000000000000000000000000000000815260040161093290614af3565b60405180910390fd5b61094481612a02565b50565b606060028054610956906151cf565b80601f0160208091040260200160405190810160405280929190818152602001828054610982906151cf565b80156109cf5780601f106109a4576101008083540402835291602001916109cf565b820191906000526020600020905b8154815290600101906020018083116109b257829003601f168201915b50505050509050919050565b6109e3613087565b600b826040516109f39190614796565b908152602001604051809103902060405180604001604052908160008201805480602002602001604051908101604052809291908181526020018280548015610a9157602002820191906000526020600020905b8160009054906101000a900473ffffffffffffffffffffffffffffffffffffffff1673ffffffffffffffffffffffffffffffffffffffff1681526020019060010190808311610a47575b5050505050815260200160018201805480602002602001604051908101604052809291908181526020018280548015610b0f57602002820191906000526020600020906000905b82829054906101000a900460ff1660ff1681526020019060010190602082600001049283019260010382029150808411610ad85790505b5050505050815250509050919050565b60086020528060005260406000206000915090508060000154908060010154908060020160009054906101000a900460ff16905083565b60096020528060005260406000206000915090505481565b8151835114610bb2576040517f08c379a0000000000000000000000000000000000000000000000000000000008152600401610ba990614bb3565b60405180910390fd5b600073ffffffffffffffffffffffffffffffffffffffff168473ffffffffffffffffffffffffffffffffffffffff161415610c22576040517f08c379a0000000000000000000000000000000000000000000000000000000008152600401610c1990614a93565b60405180910390fd5b610c2a6129fa565b73ffffffffffffffffffffffffffffffffffffffff168573ffffffffffffffffffffffffffffffffffffffff161480610c705750610c6f85610c6a6129fa565b611e49565b5b610caf576040517f08c379a0000000000000000000000000000000000000000000000000000000008152600401610ca690614ab3565b60405180910390fd5b6000610cb96129fa565b9050610cc9818787878787612a1c565b60005b8451811015610ecf576000858281518110610d10577f4e487b7100000000000000000000000000000000000000000000000000000000600052603260045260246000fd5b602002602001015190506000858381518110610d55577f4e487b7100000000000000000000000000000000000000000000000000000000600052603260045260246000fd5b60200260200101519050600080600084815260200190815260200160002060008b73ffffffffffffffffffffffffffffffffffffffff1673ffffffffffffffffffffffffffffffffffffffff16815260200190815260200160002054905081811015610df6576040517f08c379a0000000000000000000000000000000000000000000000000000000008152600401610ded90614ad3565b60405180910390fd5b8181610e0291906150b4565b60008085815260200190815260200160002060008c73ffffffffffffffffffffffffffffffffffffffff1673ffffffffffffffffffffffffffffffffffffffff168152602001908152602001600020819055508160008085815260200190815260200160002060008b73ffffffffffffffffffffffffffffffffffffffff1673ffffffffffffffffffffffffffffffffffffffff1681526020019081526020016000206000828254610eb49190614f9c565b9250508190555050505080610ec890615201565b9050610ccc565b508473ffffffffffffffffffffffffffffffffffffffff168673ffffffffffffffffffffffffffffffffffffffff168273ffffffffffffffffffffffffffffffffffffffff167f4a39dc06d4c0dbc64b70af90fd698a233a518aa5d07e595d983b8c0526c8f7fb8787604051610f469291906148ce565b60405180910390a4610f5c818787878787612a24565b505050505050565b60045481565b60608151835114610fb0576040517f08c379a0000000000000000000000000000000000000000000000000000000008152600401610fa790614b73565b60405180910390fd5b6000835167ffffffffffffffff811115610ff3577f4e487b7100000000000000000000000000000000000000000000000000000000600052604160045260246000fd5b6040519080825280602002602001820160405280156110215781602001602082028036833780820191505090505b50905060005b8451811015611110576110ba85828151811061106c577f4e487b7100000000000000000000000000000000000000000000000000000000600052603260045260246000fd5b60200260200101518583815181106110ad577f4e487b7100000000000000000000000000000000000000000000000000000000600052603260045260246000fd5b6020026020010151610714565b8282815181106110f3577f4e487b7100000000000000000000000000000000000000000000000000000000600052603260045260246000fd5b6020026020010181815250508061110990615201565b9050611027565b508091505092915050565b60055481565b6111296129fa565b73ffffffffffffffffffffffffffffffffffffffff166111476115df565b73ffffffffffffffffffffffffffffffffffffffff161461119d576040517f08c379a000000000000000000000000000000000000000000000000000000000815260040161119490614af3565b60405180910390fd5b600073ffffffffffffffffffffffffffffffffffffffff16600360009054906101000a900473ffffffffffffffffffffffffffffffffffffffff1673ffffffffffffffffffffffffffffffffffffffff167f8be0079c531659141344cd1fd0a4f28419497f9722a3daafe3b4186f6b6457e060405160405180910390a36000600360006101000a81548173ffffffffffffffffffffffffffffffffffffffff021916908373ffffffffffffffffffffffffffffffffffffffff160217905550565b80518251146112a2576040517f08c379a000000000000000000000000000000000000000000000000000000000815260040161129990614b93565b60405180910390fd5b6000805b82518160ff16101561131657828160ff16815181106112ee577f4e487b7100000000000000000000000000000000000000000000000000000000600052603260045260246000fd5b6020026020010151826113019190614ff2565b9150808061130e9061524a565b9150506112a6565b5060648160ff161461135d576040517f08c379a000000000000000000000000000000000000000000000000000000000815260040161135490614a13565b60405180910390fd5b6000604051806040016040528085815260200184815250905080600b866040516113879190614796565b908152602001604051809103902060008201518160000190805190602001906113b19291906130a1565b5060208201518160010190805190602001906113ce92919061312b565b5090505060005b84518160ff161015611548576000600a6000878460ff1681518110611423577f4e487b7100000000000000000000000000000000000000000000000000000000600052603260045260246000fd5b602002602001015173ffffffffffffffffffffffffffffffffffffffff1673ffffffffffffffffffffffffffffffffffffffff168152602001908152602001600020905080879080600181540180825580915050600190039060005260206000200160009091909190915090805190602001906114a19291906131d2565b5080600a6000888560ff16815181106114e3577f4e487b7100000000000000000000000000000000000000000000000000000000600052603260045260246000fd5b602002602001015173ffffffffffffffffffffffffffffffffffffffff1673ffffffffffffffffffffffffffffffffffffffff168152602001908152602001600020908054611533929190613258565b505080806115409061524a565b9150506113d5565b50600c859080600181540180825580915050600190039060005260206000200160009091909190915090805190602001906115849291906131d2565b50600d600081548092919061159890615201565b91905055507f2d1e2b22cb19a14d93d9b1713a17f1c413f0e711cd5089fb1974660eb8ca56248585856040516115d093929190614987565b60405180910390a15050505050565b6000600360009054906101000a900473ffffffffffffffffffffffffffffffffffffffff16905090565b600c818154811061161957600080fd5b906000526020600020016000915090508054611634906151cf565b80601f0160208091040260200160405190810160405280929190818152602001828054611660906151cf565b80156116ad5780601f10611682576101008083540402835291602001916116ad565b820191906000526020600020905b81548152906001019060200180831161169057829003601f168201915b505050505081565b6116bd6129fa565b73ffffffffffffffffffffffffffffffffffffffff166116db6115df565b73ffffffffffffffffffffffffffffffffffffffff1614611731576040517f08c379a000000000000000000000000000000000000000000000000000000000815260040161172890614af3565b60405180910390fd5b80821415611774576040517f08c379a000000000000000000000000000000000000000000000000000000000815260040161176b90614b33565b60405180910390fd5b6004600081548092919061178790615201565b919050555060066004549080600181540180825580915050600190039060005260206000200160009091909190915055604051806060016040528083815260200182815260200160011515815250600860006004548152602001908152602001600020600082015181600001556020820151816001015560408201518160020160006101000a81548160ff0219169083151502179055509050506004543373ffffffffffffffffffffffffffffffffffffffff167ff221001f6e4377cdb8deeb1cbd7868612effc3e75f73ae62189060eba58be38c60008086866040516118719493929190614920565b60405180910390a35050565b8173ffffffffffffffffffffffffffffffffffffffff1661189c6129fa565b73ffffffffffffffffffffffffffffffffffffffff1614156118f3576040517f08c379a00000000000000000000000000000000000000000000000000000000081526004016118ea90614b53565b60405180910390fd5b80600160006119006129fa565b73ffffffffffffffffffffffffffffffffffffffff1673ffffffffffffffffffffffffffffffffffffffff16815260200190815260200160002060008473ffffffffffffffffffffffffffffffffffffffff1673ffffffffffffffffffffffffffffffffffffffff16815260200190815260200160002060006101000a81548160ff0219169083151502179055508173ffffffffffffffffffffffffffffffffffffffff166119ad6129fa565b73ffffffffffffffffffffffffffffffffffffffff167f17307eab39ab6107e8899845ad3d59bd9653f200f220920489ca2b5937696c31836040516119f29190614905565b60405180910390a35050565b60076020528060005260406000206000915090505481565b611a1e6129fa565b73ffffffffffffffffffffffffffffffffffffffff16611a3c6115df565b73ffffffffffffffffffffffffffffffffffffffff1614611a92576040517f08c379a0000000000000000000000000000000000000000000000000000000008152600401611a8990614af3565b60405180910390fd5b6008600084815260200190815260200160002060020160009054906101000a900460ff16611af5576040517f08c379a0000000000000000000000000000000000000000000000000000000008152600401611aec90614b13565b60405180910390fd5b823373ffffffffffffffffffffffffffffffffffffffff167ff221001f6e4377cdb8deeb1cbd7868612effc3e75f73ae62189060eba58be38c600860008781526020019081526020016000206000015460086000888152602001908152602001600020600101548686604051611b6e9493929190614c90565b60405180910390a3816008600085815260200190815260200160002060000181905550806008600085815260200190815260200160002060010181905550505050565b60068181548110611bc157600080fd5b906000526020600020016000915090505481565b60606000600d5467ffffffffffffffff811115611c1b577f4e487b7100000000000000000000000000000000000000000000000000000000600052604160045260246000fd5b604051908082528060200260200182016040528015611c4e57816020015b6060815260200190600190039081611c395790505b50905060005b600d54811015611d8257600c8181548110611c98577f4e487b7100000000000000000000000000000000000000000000000000000000600052603260045260246000fd5b906000526020600020018054611cad906151cf565b80601f0160208091040260200160405190810160405280929190818152602001828054611cd9906151cf565b8015611d265780601f10611cfb57610100808354040283529160200191611d26565b820191906000526020600020905b815481529060010190602001808311611d0957829003601f168201915b5050505050828281518110611d64577f4e487b7100000000000000000000000000000000000000000000000000000000600052603260045260246000fd5b60200260200101819052508080611d7a90615201565b915050611c54565b508091505090565b600d5481565b600a6020528160005260406000208181548110611dac57600080fd5b90600052602060002001600091509150508054611dc8906151cf565b80601f0160208091040260200160405190810160405280929190818152602001828054611df4906151cf565b8015611e415780601f10611e1657610100808354040283529160200191611e41565b820191906000526020600020905b815481529060010190602001808311611e2457829003601f168201915b505050505081565b6000600160008473ffffffffffffffffffffffffffffffffffffffff1673ffffffffffffffffffffffffffffffffffffffff16815260200190815260200160002060008373ffffffffffffffffffffffffffffffffffffffff1673ffffffffffffffffffffffffffffffffffffffff16815260200190815260200160002060009054906101000a900460ff16905092915050565b611ee56129fa565b73ffffffffffffffffffffffffffffffffffffffff16611f036115df565b73ffffffffffffffffffffffffffffffffffffffff1614611f59576040517f08c379a0000000000000000000000000000000000000000000000000000000008152600401611f5090614af3565b60405180910390fd5b6008600083815260200190815260200160002060020160009054906101000a900460ff16611fbc576040517f08c379a0000000000000000000000000000000000000000000000000000000008152600401611fb390614b13565b60405180910390fd5b806007600084815260200190815260200160002081905550813373ffffffffffffffffffffffffffffffffffffffff167f62e2c9c75b287778c0b58f1c1d83fa8f9978a33848e0b423735fd44f48ebe3c18360405161201b9190614c15565b60405180910390a35050565b600073ffffffffffffffffffffffffffffffffffffffff168473ffffffffffffffffffffffffffffffffffffffff161415612097576040517f08c379a000000000000000000000000000000000000000000000000000000000815260040161208e90614a93565b60405180910390fd5b61209f6129fa565b73ffffffffffffffffffffffffffffffffffffffff168573ffffffffffffffffffffffffffffffffffffffff1614806120e557506120e4856120df6129fa565b611e49565b5b612124576040517f08c379a000000000000000000000000000000000000000000000000000000000815260040161211b90614a73565b60405180910390fd5b600061212e6129fa565b905061214e81878761213f88612bf4565b61214888612bf4565b87612a1c565b600080600086815260200190815260200160002060008873ffffffffffffffffffffffffffffffffffffffff1673ffffffffffffffffffffffffffffffffffffffff168152602001908152602001600020549050838110156121e5576040517f08c379a00000000000000000000000000000000000000000000000000000000081526004016121dc90614ad3565b60405180910390fd5b83816121f191906150b4565b60008087815260200190815260200160002060008973ffffffffffffffffffffffffffffffffffffffff1673ffffffffffffffffffffffffffffffffffffffff168152602001908152602001600020819055508360008087815260200190815260200160002060008873ffffffffffffffffffffffffffffffffffffffff1673ffffffffffffffffffffffffffffffffffffffff16815260200190815260200160002060008282546122a39190614f9c565b925050819055508573ffffffffffffffffffffffffffffffffffffffff168773ffffffffffffffffffffffffffffffffffffffff168373ffffffffffffffffffffffffffffffffffffffff167fc3d58168c5ae7397731d063d5bbf3d657854427343f4c083240f7aacaa2d0f628888604051612320929190614c30565b60405180910390a4612336828888888888612cba565b50505050505050565b6123476129fa565b73ffffffffffffffffffffffffffffffffffffffff166123656115df565b73ffffffffffffffffffffffffffffffffffffffff16146123bb576040517f08c379a00000000000000000000000000000000000000000000000000000000081526004016123b290614af3565b60405180910390fd5b600073ffffffffffffffffffffffffffffffffffffffff168173ffffffffffffffffffffffffffffffffffffffff16141561242b576040517f08c379a000000000000000000000000000000000000000000000000000000000815260040161242290614a53565b60405180910390fd5b8073ffffffffffffffffffffffffffffffffffffffff16600360009054906101000a900473ffffffffffffffffffffffffffffffffffffffff1673ffffffffffffffffffffffffffffffffffffffff167f8be0079c531659141344cd1fd0a4f28419497f9722a3daafe3b4186f6b6457e060405160405180910390a380600360006101000a81548173ffffffffffffffffffffffffffffffffffffffff021916908373ffffffffffffffffffffffffffffffffffffffff16021790555050565b600034905060005b82518160ff1610156127b9576000600b848360ff168151811061253f577f4e487b7100000000000000000000000000000000000000000000000000000000600052603260045260246000fd5b60200260200101516040516125549190614796565b9081526020016040518091039020604051806040016040529081600082018054806020026020016040519081016040528092919081815260200182805480156125f257602002820191906000526020600020905b8160009054906101000a900473ffffffffffffffffffffffffffffffffffffffff1673ffffffffffffffffffffffffffffffffffffffff16815260200190600101908083116125a8575b505050505081526020016001820180548060200260200160405190810160405280929190818152602001828054801561267057602002820191906000526020600020906000905b82829054906101000a900460ff1660ff16815260200190600101906020826000010492830192600103820291508084116126395790505b505050505081525050905060005b8160000151518160ff1610156127a457600061270083602001518360ff16815181106126d3577f4e487b7100000000000000000000000000000000000000000000000000000000600052603260045260246000fd5b602002602001015160ff166126f2606488612e8a90919063ffffffff16565b612ea090919063ffffffff16565b905082600001518260ff1681518110612742577f4e487b7100000000000000000000000000000000000000000000000000000000600052603260045260246000fd5b602002602001015173ffffffffffffffffffffffffffffffffffffffff166108fc829081150290604051600060405180830381858888f1935050505015801561278f573d6000803e3d6000fd5b5050808061279c9061524a565b91505061267e565b505080806127b19061524a565b9150506124f3565b506127cf81600554612eb690919063ffffffff16565b503373ffffffffffffffffffffffffffffffffffffffff167ffa2803e65daee5bfd799f98d65aff9e8383e0ea6bfa38c0840617e9eec26200a826040516128169190614c15565b60405180910390a2600080600090505b60068054905081101561291d5760006006828154811061286f577f4e487b7100000000000000000000000000000000000000000000000000000000600052603260045260246000fd5b906000526020600020015490506008600082815260200190815260200160002060000154841180156128b7575060086000828152602001908152602001600020600101548411155b1561290957600682815481106128f6577f4e487b7100000000000000000000000000000000000000000000000000000000600052603260045260246000fd5b906000526020600020015492505061291d565b50808061291590615201565b915050612826565b506000612946600760008481526020019081526020016000205484612e8a90919063ffffffff16565b905061296e816009600085815260200190815260200160002054612eb690919063ffffffff16565b5061298a33838360405180602001604052806000815250612ecc565b50505050565b60007f01ffc9a7000000000000000000000000000000000000000000000000000000007bffffffffffffffffffffffffffffffffffffffffffffffffffffffff1916827bffffffffffffffffffffffffffffffffffffffffffffffffffffffff1916149050919050565b600033905090565b8060029080519060200190612a189291906131d2565b5050565b505050505050565b612a438473ffffffffffffffffffffffffffffffffffffffff16612ede565b15612bec578373ffffffffffffffffffffffffffffffffffffffff1663bc197c8187878686866040518663ffffffff1660e01b8152600401612a899594939291906147c8565b602060405180830381600087803b158015612aa357600080fd5b505af1925050508015612ad457506040513d601f19601f82011682018060405250810190612ad19190613b11565b60015b612b6357612ae061534e565b80612aeb5750612b28565b806040517f08c379a0000000000000000000000000000000000000000000000000000000008152600401612b1f9190614965565b60405180910390fd5b6040517f08c379a0000000000000000000000000000000000000000000000000000000008152600401612b5a906149d3565b60405180910390fd5b63bc197c8160e01b7bffffffffffffffffffffffffffffffffffffffffffffffffffffffff1916817bffffffffffffffffffffffffffffffffffffffffffffffffffffffff191614612bea576040517f08c379a0000000000000000000000000000000000000000000000000000000008152600401612be1906149f3565b60405180910390fd5b505b505050505050565b60606000600167ffffffffffffffff811115612c39577f4e487b7100000000000000000000000000000000000000000000000000000000600052604160045260246000fd5b604051908082528060200260200182016040528015612c675781602001602082028036833780820191505090505b5090508281600081518110612ca5577f4e487b7100000000000000000000000000000000000000000000000000000000600052603260045260246000fd5b60200260200101818152505080915050919050565b612cd98473ffffffffffffffffffffffffffffffffffffffff16612ede565b15612e82578373ffffffffffffffffffffffffffffffffffffffff1663f23a6e6187878686866040518663ffffffff1660e01b8152600401612d1f959493929190614830565b602060405180830381600087803b158015612d3957600080fd5b505af1925050508015612d6a57506040513d601f19601f82011682018060405250810190612d679190613b11565b60015b612df957612d7661534e565b80612d815750612dbe565b806040517f08c379a0000000000000000000000000000000000000000000000000000000008152600401612db59190614965565b60405180910390fd5b6040517f08c379a0000000000000000000000000000000000000000000000000000000008152600401612df0906149d3565b60405180910390fd5b63f23a6e6160e01b7bffffffffffffffffffffffffffffffffffffffffffffffffffffffff1916817bffffffffffffffffffffffffffffffffffffffffffffffffffffffff191614612e80576040517f08c379a0000000000000000000000000000000000000000000000000000000008152600401612e77906149f3565b60405180910390fd5b505b505050505050565b60008183612e989190615029565b905092915050565b60008183612eae919061505a565b905092915050565b60008183612ec49190614f9c565b905092915050565b612ed884848484612ef1565b50505050565b600080823b905060008111915050919050565b600073ffffffffffffffffffffffffffffffffffffffff168473ffffffffffffffffffffffffffffffffffffffff161415612f61576040517f08c379a0000000000000000000000000000000000000000000000000000000008152600401612f5890614bd3565b60405180910390fd5b6000612f6b6129fa565b9050612f8c81600087612f7d88612bf4565b612f8688612bf4565b87612a1c565b8260008086815260200190815260200160002060008773ffffffffffffffffffffffffffffffffffffffff1673ffffffffffffffffffffffffffffffffffffffff1681526020019081526020016000206000828254612feb9190614f9c565b925050819055508473ffffffffffffffffffffffffffffffffffffffff16600073ffffffffffffffffffffffffffffffffffffffff168273ffffffffffffffffffffffffffffffffffffffff167fc3d58168c5ae7397731d063d5bbf3d657854427343f4c083240f7aacaa2d0f628787604051613069929190614c30565b60405180910390a461308081600087878787612cba565b5050505050565b604051806040016040528060608152602001606081525090565b82805482825590600052602060002090810192821561311a579160200282015b828111156131195782518260006101000a81548173ffffffffffffffffffffffffffffffffffffffff021916908373ffffffffffffffffffffffffffffffffffffffff160217905550916020019190600101906130c1565b5b50905061312791906132c0565b5090565b82805482825590600052602060002090601f016020900481019282156131c15791602002820160005b8382111561319257835183826101000a81548160ff021916908360ff1602179055509260200192600101602081600001049283019260010302613154565b80156131bf5782816101000a81549060ff0219169055600101602081600001049283019260010302613192565b505b5090506131ce91906132c0565b5090565b8280546131de906151cf565b90600052602060002090601f0160209004810192826132005760008555613247565b82601f1061321957805160ff1916838001178555613247565b82800160010185558215613247579182015b8281111561324657825182559160200191906001019061322b565b5b50905061325491906132c0565b5090565b8280548282559060005260206000209081019282156132af5760005260206000209182015b828111156132ae578282908054613293906151cf565b61329e9291906132dd565b509160010191906001019061327d565b5b5090506132bc919061336a565b5090565b5b808211156132d95760008160009055506001016132c1565b5090565b8280546132e9906151cf565b90600052602060002090601f01602090048101928261330b5760008555613359565b82601f1061331c5780548555613359565b8280016001018555821561335957600052602060002091601f016020900482015b8281111561335857825482559160010191906001019061333d565b5b50905061336691906132c0565b5090565b5b8082111561338a5760008181613381919061338e565b5060010161336b565b5090565b50805461339a906151cf565b6000825580601f106133ac57506133cb565b601f0160209004906000526020600020908101906133ca91906132c0565b5b50565b60006133e16133dc84614d06565b614cd5565b9050808382526020820190508285602086028201111561340057600080fd5b60005b8581101561343057816134168882613657565b845260208401935060208301925050600181019050613403565b5050509392505050565b600061344d61344884614d32565b614cd5565b9050808382526020820190508285602086028201111561346c57600080fd5b60005b8581101561349c5781613482888261366c565b84526020840193506020830192505060018101905061346f565b5050509392505050565b60006134b96134b484614d5e565b614cd5565b9050808382526020820190508260005b858110156134f957813585016134df88826137bc565b8452602084019350602083019250506001810190506134c9565b5050509392505050565b600061351661351184614d8a565b614cd5565b9050808382526020820190508285602086028201111561353557600080fd5b60005b85811015613565578161354b88826137e6565b845260208401935060208301925050600181019050613538565b5050509392505050565b600061358261357d84614db6565b614cd5565b905080838252602082019050828560208602820111156135a157600080fd5b60005b858110156135d157816135b788826137fb565b8452602084019350602083019250506001810190506135a4565b5050509392505050565b60006135ee6135e984614de2565b614cd5565b90508281526020810184848401111561360657600080fd5b61361184828561518d565b509392505050565b600061362c61362784614e12565b614cd5565b90508281526020810184848401111561364457600080fd5b61364f84828561518d565b509392505050565b60008135905061366681615404565b92915050565b60008135905061367b8161541b565b92915050565b600082601f83011261369257600080fd5b81356136a28482602086016133ce565b91505092915050565b600082601f8301126136bc57600080fd5b81356136cc84826020860161343a565b91505092915050565b600082601f8301126136e657600080fd5b81356136f68482602086016134a6565b91505092915050565b600082601f83011261371057600080fd5b8135613720848260208601613503565b91505092915050565b600082601f83011261373a57600080fd5b813561374a84826020860161356f565b91505092915050565b60008135905061376281615432565b92915050565b60008135905061377781615449565b92915050565b60008151905061378c81615449565b92915050565b600082601f8301126137a357600080fd5b81356137b38482602086016135db565b91505092915050565b600082601f8301126137cd57600080fd5b81356137dd848260208601613619565b91505092915050565b6000813590506137f581615460565b92915050565b60008135905061380a81615477565b92915050565b60006020828403121561382257600080fd5b600061383084828501613657565b91505092915050565b6000806040838503121561384c57600080fd5b600061385a85828601613657565b925050602061386b85828601613657565b9150509250929050565b600080600080600060a0868803121561388d57600080fd5b600061389b88828901613657565b95505060206138ac88828901613657565b945050604086013567ffffffffffffffff8111156138c957600080fd5b6138d5888289016136ff565b935050606086013567ffffffffffffffff8111156138f257600080fd5b6138fe888289016136ff565b925050608086013567ffffffffffffffff81111561391b57600080fd5b61392788828901613792565b9150509295509295909350565b600080600080600060a0868803121561394c57600080fd5b600061395a88828901613657565b955050602061396b88828901613657565b945050604061397c888289016137e6565b935050606061398d888289016137e6565b925050608086013567ffffffffffffffff8111156139aa57600080fd5b6139b688828901613792565b9150509295509295909350565b600080604083850312156139d657600080fd5b60006139e485828601613657565b92505060206139f585828601613753565b9150509250929050565b60008060408385031215613a1257600080fd5b6000613a2085828601613657565b9250506020613a31858286016137e6565b9150509250929050565b60008060408385031215613a4e57600080fd5b600083013567ffffffffffffffff811115613a6857600080fd5b613a7485828601613681565b925050602083013567ffffffffffffffff811115613a9157600080fd5b613a9d858286016136ff565b9150509250929050565b600060208284031215613ab957600080fd5b600082013567ffffffffffffffff811115613ad357600080fd5b613adf848285016136d5565b91505092915050565b600060208284031215613afa57600080fd5b6000613b0884828501613768565b91505092915050565b600060208284031215613b2357600080fd5b6000613b318482850161377d565b91505092915050565b600060208284031215613b4c57600080fd5b600082013567ffffffffffffffff811115613b6657600080fd5b613b72848285016137bc565b91505092915050565b600080600060608486031215613b9057600080fd5b600084013567ffffffffffffffff811115613baa57600080fd5b613bb6868287016137bc565b935050602084013567ffffffffffffffff811115613bd357600080fd5b613bdf868287016136ab565b925050604084013567ffffffffffffffff811115613bfc57600080fd5b613c0886828701613729565b9150509250925092565b600060208284031215613c2457600080fd5b6000613c32848285016137e6565b91505092915050565b60008060408385031215613c4e57600080fd5b6000613c5c858286016137e6565b9250506020613c6d858286016137e6565b9150509250929050565b600080600060608486031215613c8c57600080fd5b6000613c9a868287016137e6565b9350506020613cab868287016137e6565b9250506040613cbc868287016137e6565b9150509250925092565b6000613cd28383613d22565b60208301905092915050565b6000613cea8383613fe2565b905092915050565b6000613cfe8383614769565b60208301905092915050565b6000613d168383614787565b60208301905092915050565b613d2b816150fa565b82525050565b613d3a816150e8565b82525050565b6000613d4b82614e82565b613d558185614ef8565b9350613d6083614e42565b8060005b83811015613d91578151613d788882613cc6565b9750613d8383614ec4565b925050600181019050613d64565b5085935050505092915050565b6000613da982614e82565b613db38185614f09565b9350613dbe83614e42565b8060005b83811015613def578151613dd68882613cc6565b9750613de183614ec4565b925050600181019050613dc2565b5085935050505092915050565b6000613e0782614e8d565b613e118185614f1a565b935083602082028501613e2385614e52565b8060005b85811015613e5f5784840389528151613e408582613cde565b9450613e4b83614ed1565b925060208a01995050600181019050613e27565b50829750879550505050505092915050565b6000613e7c82614e98565b613e868185614f2b565b9350613e9183614e62565b8060005b83811015613ec2578151613ea98882613cf2565b9750613eb483614ede565b925050600181019050613e95565b5085935050505092915050565b6000613eda82614ea3565b613ee48185614f3c565b9350613eef83614e72565b8060005b83811015613f20578151613f078882613d0a565b9750613f1283614eeb565b925050600181019050613ef3565b5085935050505092915050565b6000613f3882614ea3565b613f428185614f4d565b9350613f4d83614e72565b8060005b83811015613f7e578151613f658882613d0a565b9750613f7083614eeb565b925050600181019050613f51565b5085935050505092915050565b613f948161510c565b82525050565b6000613fa582614eae565b613faf8185614f5e565b9350613fbf81856020860161519c565b613fc881615330565b840191505092915050565b613fdc8161517b565b82525050565b6000613fed82614eb9565b613ff78185614f6f565b935061400781856020860161519c565b61401081615330565b840191505092915050565b600061402682614eb9565b6140308185614f80565b935061404081856020860161519c565b61404981615330565b840191505092915050565b600061405f82614eb9565b6140698185614f91565b935061407981856020860161519c565b80840191505092915050565b6000614092603483614f80565b91507f455243313135353a207472616e7366657220746f206e6f6e204552433131353560008301527f526563656976657220696d706c656d656e7465720000000000000000000000006020830152604082019050919050565b60006140f8602883614f80565b91507f455243313135353a204552433131353552656365697665722072656a6563746560008301527f6420746f6b656e730000000000000000000000000000000000000000000000006020830152604082019050919050565b600061415e602183614f80565b91507f53756d206f6620736861726573206d7573742062652065786163746c7920313060008301527f30000000000000000000000000000000000000000000000000000000000000006020830152604082019050919050565b60006141c4602b83614f80565b91507f455243313135353a2062616c616e636520717565727920666f7220746865207a60008301527f65726f20616464726573730000000000000000000000000000000000000000006020830152604082019050919050565b600061422a602683614f80565b91507f4f776e61626c653a206e6577206f776e657220697320746865207a65726f206160008301527f64647265737300000000000000000000000000000000000000000000000000006020830152604082019050919050565b6000614290602983614f80565b91507f455243313135353a2063616c6c6572206973206e6f74206f776e6572206e6f7260008301527f20617070726f76656400000000000000000000000000000000000000000000006020830152604082019050919050565b60006142f6602583614f80565b91507f455243313135353a207472616e7366657220746f20746865207a65726f20616460008301527f64726573730000000000000000000000000000000000000000000000000000006020830152604082019050919050565b600061435c603283614f80565b91507f455243313135353a207472616e736665722063616c6c6572206973206e6f742060008301527f6f776e6572206e6f7220617070726f76656400000000000000000000000000006020830152604082019050919050565b60006143c2602a83614f80565b91507f455243313135353a20696e73756666696369656e742062616c616e636520666f60008301527f72207472616e73666572000000000000000000000000000000000000000000006020830152604082019050919050565b6000614428602083614f80565b91507f4f776e61626c653a2063616c6c6572206973206e6f7420746865206f776e65726000830152602082019050919050565b6000614468602483614f80565b91507f4552433131353546696e616c3a20746f6b656e496420646f6573206e6f74206560008301527f78697374000000000000000000000000000000000000000000000000000000006020830152604082019050919050565b60006144ce602883614f80565b91507f4552433131353546696e616c3a206d696e2063616e6e6f74206265206571756160008301527f6c20746f206d61780000000000000000000000000000000000000000000000006020830152604082019050919050565b6000614534602983614f80565b91507f455243313135353a2073657474696e6720617070726f76616c2073746174757360008301527f20666f722073656c6600000000000000000000000000000000000000000000006020830152604082019050919050565b600061459a602983614f80565b91507f455243313135353a206163636f756e747320616e6420696473206c656e67746860008301527f206d69736d6174636800000000000000000000000000000000000000000000006020830152604082019050919050565b6000614600602e83614f80565b91507f45616368206f776e65722073686f756c6420686176652069747320636f72726560008301527f73706f6e64696e672073686172650000000000000000000000000000000000006020830152604082019050919050565b6000614666602883614f80565b91507f455243313135353a2069647320616e6420616d6f756e7473206c656e6774682060008301527f6d69736d617463680000000000000000000000000000000000000000000000006020830152604082019050919050565b60006146cc602183614f80565b91507f455243313135353a206d696e7420746f20746865207a65726f2061646472657360008301527f73000000000000000000000000000000000000000000000000000000000000006020830152604082019050919050565b600060408301600083015184820360008601526147428282613d40565b9150506020830151848203602086015261475c8282613ecf565b9150508091505092915050565b61477281615164565b82525050565b61478181615164565b82525050565b6147908161516e565b82525050565b60006147a28284614054565b915081905092915050565b60006020820190506147c26000830184613d31565b92915050565b600060a0820190506147dd6000830188613d31565b6147ea6020830187613d31565b81810360408301526147fc8186613e71565b905081810360608301526148108185613e71565b905081810360808301526148248184613f9a565b90509695505050505050565b600060a0820190506148456000830188613d31565b6148526020830187613d31565b61485f6040830186614778565b61486c6060830185614778565b818103608083015261487e8184613f9a565b90509695505050505050565b600060208201905081810360008301526148a48184613dfc565b905092915050565b600060208201905081810360008301526148c68184613e71565b905092915050565b600060408201905081810360008301526148e88185613e71565b905081810360208301526148fc8184613e71565b90509392505050565b600060208201905061491a6000830184613f8b565b92915050565b60006080820190506149356000830187613fd3565b6149426020830186613fd3565b61494f6040830185614778565b61495c6060830184614778565b95945050505050565b6000602082019050818103600083015261497f818461401b565b905092915050565b600060608201905081810360008301526149a1818661401b565b905081810360208301526149b58185613d9e565b905081810360408301526149c98184613f2d565b9050949350505050565b600060208201905081810360008301526149ec81614085565b9050919050565b60006020820190508181036000830152614a0c816140eb565b9050919050565b60006020820190508181036000830152614a2c81614151565b9050919050565b60006020820190508181036000830152614a4c816141b7565b9050919050565b60006020820190508181036000830152614a6c8161421d565b9050919050565b60006020820190508181036000830152614a8c81614283565b9050919050565b60006020820190508181036000830152614aac816142e9565b9050919050565b60006020820190508181036000830152614acc8161434f565b9050919050565b60006020820190508181036000830152614aec816143b5565b9050919050565b60006020820190508181036000830152614b0c8161441b565b9050919050565b60006020820190508181036000830152614b2c8161445b565b9050919050565b60006020820190508181036000830152614b4c816144c1565b9050919050565b60006020820190508181036000830152614b6c81614527565b9050919050565b60006020820190508181036000830152614b8c8161458d565b9050919050565b60006020820190508181036000830152614bac816145f3565b9050919050565b60006020820190508181036000830152614bcc81614659565b9050919050565b60006020820190508181036000830152614bec816146bf565b9050919050565b60006020820190508181036000830152614c0d8184614725565b905092915050565b6000602082019050614c2a6000830184614778565b92915050565b6000604082019050614c456000830185614778565b614c526020830184614778565b9392505050565b6000606082019050614c6e6000830186614778565b614c7b6020830185614778565b614c886040830184613f8b565b949350505050565b6000608082019050614ca56000830187614778565b614cb26020830186614778565b614cbf6040830185614778565b614ccc6060830184614778565b95945050505050565b6000604051905081810181811067ffffffffffffffff82111715614cfc57614cfb615301565b5b8060405250919050565b600067ffffffffffffffff821115614d2157614d20615301565b5b602082029050602081019050919050565b600067ffffffffffffffff821115614d4d57614d4c615301565b5b602082029050602081019050919050565b600067ffffffffffffffff821115614d7957614d78615301565b5b602082029050602081019050919050565b600067ffffffffffffffff821115614da557614da4615301565b5b602082029050602081019050919050565b600067ffffffffffffffff821115614dd157614dd0615301565b5b602082029050602081019050919050565b600067ffffffffffffffff821115614dfd57614dfc615301565b5b601f19601f8301169050602081019050919050565b600067ffffffffffffffff821115614e2d57614e2c615301565b5b601f19601f8301169050602081019050919050565b6000819050602082019050919050565b6000819050602082019050919050565b6000819050602082019050919050565b6000819050602082019050919050565b600081519050919050565b600081519050919050565b600081519050919050565b600081519050919050565b600081519050919050565b600081519050919050565b6000602082019050919050565b6000602082019050919050565b6000602082019050919050565b6000602082019050919050565b600082825260208201905092915050565b600082825260208201905092915050565b600082825260208201905092915050565b600082825260208201905092915050565b600082825260208201905092915050565b600082825260208201905092915050565b600082825260208201905092915050565b600082825260208201905092915050565b600082825260208201905092915050565b600081905092915050565b6000614fa782615164565b9150614fb283615164565b9250827fffffffffffffffffffffffffffffffffffffffffffffffffffffffffffffffff03821115614fe757614fe6615274565b5b828201905092915050565b6000614ffd8261516e565b91506150088361516e565b92508260ff0382111561501e5761501d615274565b5b828201905092915050565b600061503482615164565b915061503f83615164565b92508261504f5761504e6152a3565b5b828204905092915050565b600061506582615164565b915061507083615164565b9250817fffffffffffffffffffffffffffffffffffffffffffffffffffffffffffffffff04831182151516156150a9576150a8615274565b5b828202905092915050565b60006150bf82615164565b91506150ca83615164565b9250828210156150dd576150dc615274565b5b828203905092915050565b60006150f382615144565b9050919050565b600061510582615144565b9050919050565b60008115159050919050565b60007fffffffff0000000000000000000000000000000000000000000000000000000082169050919050565b600073ffffffffffffffffffffffffffffffffffffffff82169050919050565b6000819050919050565b600060ff82169050919050565b600061518682615164565b9050919050565b82818337600083830152505050565b60005b838110156151ba57808201518184015260208101905061519f565b838111156151c9576000848401525b50505050565b600060028204905060018216806151e757607f821691505b602082108114156151fb576151fa6152d2565b5b50919050565b600061520c82615164565b91507fffffffffffffffffffffffffffffffffffffffffffffffffffffffffffffffff82141561523f5761523e615274565b5b600182019050919050565b60006152558261516e565b915060ff82141561526957615268615274565b5b600182019050919050565b7f4e487b7100000000000000000000000000000000000000000000000000000000600052601160045260246000fd5b7f4e487b7100000000000000000000000000000000000000000000000000000000600052601260045260246000fd5b7f4e487b7100000000000000000000000000000000000000000000000000000000600052602260045260246000fd5b7f4e487b7100000000000000000000000000000000000000000000000000000000600052604160045260246000fd5b6000601f19601f8301169050919050565b60008160e01c9050919050565b600060443d101561535e57615401565b60046000803e61536f600051615341565b6308c379a081146153805750615401565b60405160043d036004823e80513d602482011167ffffffffffffffff821117156153ac57505050615401565b808201805167ffffffffffffffff8111156153cb575050505050615401565b8060208301013d85018111156153e657505050505050615401565b6153ef82615330565b60208401016040528296505050505050505b90565b61540d816150e8565b811461541857600080fd5b50565b615424816150fa565b811461542f57600080fd5b50565b61543b8161510c565b811461544657600080fd5b50565b61545281615118565b811461545d57600080fd5b50565b61546981615164565b811461547457600080fd5b50565b6154808161516e565b811461548b57600080fd5b5056fea2646970667358221220e06b19b4bcb8b41107948d3b9a3c3df5aebdff521029ed04c510ead0672a865364736f6c63430008000033",
  "linkReferences": {},
  "deployedLinkReferences": {}
}