{
  "_format": "hh-sol-artifact-1",
  "contractName": "CMORegistry",
  "sourceName": "contracts/CMORegistry.sol",
  "abi": [
    {
      "inputs": [
        {
          "internalType": "string",
          "name": "_tokenUri",
          "type": "string"
        }
      ],
      "stateMutability": "nonpayable",
      "type": "constructor"
    },
    {
      "anonymous": false,
      "inputs": [
        {
          "indexed": true,
          "internalType": "address",
          "name": "account",
          "type": "address"
        },
        {
          "indexed": true,
          "internalType": "address",
          "name": "operator",
          "type": "address"
        },
        {
          "indexed": false,
          "internalType": "bool",
          "name": "approved",
          "type": "bool"
        }
      ],
      "name": "ApprovalForAll",
      "type": "event"
    },
    {
      "anonymous": false,
      "inputs": [
        {
          "indexed": true,
          "internalType": "address",
          "name": "previousOwner",
          "type": "address"
        },
        {
          "indexed": true,
          "internalType": "address",
          "name": "newOwner",
          "type": "address"
        }
      ],
      "name": "OwnershipTransferred",
      "type": "event"
    },
    {
      "anonymous": false,
      "inputs": [
        {
          "indexed": false,
          "internalType": "string",
          "name": "_cid",
          "type": "string"
        },
        {
          "indexed": false,
          "internalType": "address payable[]",
          "name": "_owners",
          "type": "address[]"
        },
        {
          "indexed": false,
          "internalType": "uint8[]",
          "name": "_shares",
          "type": "uint8[]"
        }
      ],
      "name": "RightRegistered",
      "type": "event"
    },
    {
      "anonymous": false,
      "inputs": [
        {
          "indexed": true,
          "internalType": "address",
          "name": "payer",
          "type": "address"
        },
        {
          "indexed": false,
          "internalType": "uint256",
          "name": "value",
          "type": "uint256"
        }
      ],
      "name": "RightsPaymentReceived",
      "type": "event"
    },
    {
      "anonymous": false,
      "inputs": [
        {
          "indexed": true,
          "internalType": "address",
          "name": "actor",
          "type": "address"
        },
        {
          "indexed": true,
          "internalType": "uint256",
          "name": "tokenId",
          "type": "uint256"
        },
        {
          "indexed": false,
          "internalType": "uint256",
          "name": "price",
          "type": "uint256"
        }
      ],
      "name": "TokenPriceUpdated",
      "type": "event"
    },
    {
      "anonymous": false,
      "inputs": [
        {
          "indexed": true,
          "internalType": "address",
          "name": "actor",
          "type": "address"
        },
        {
          "indexed": true,
          "internalType": "uint256",
          "name": "tokenId",
          "type": "uint256"
        },
        {
          "indexed": false,
          "internalType": "uint256",
          "name": "oldMin",
          "type": "uint256"
        },
        {
          "indexed": false,
          "internalType": "uint256",
          "name": "oldMax",
          "type": "uint256"
        },
        {
          "indexed": false,
          "internalType": "uint256",
          "name": "newMin",
          "type": "uint256"
        },
        {
          "indexed": false,
          "internalType": "uint256",
          "name": "newMax",
          "type": "uint256"
        }
      ],
      "name": "TokenRangeUpdated",
      "type": "event"
    },
    {
      "anonymous": false,
      "inputs": [
        {
          "indexed": true,
          "internalType": "address",
          "name": "operator",
          "type": "address"
        },
        {
          "indexed": true,
          "internalType": "address",
          "name": "from",
          "type": "address"
        },
        {
          "indexed": true,
          "internalType": "address",
          "name": "to",
          "type": "address"
        },
        {
          "indexed": false,
          "internalType": "uint256[]",
          "name": "ids",
          "type": "uint256[]"
        },
        {
          "indexed": false,
          "internalType": "uint256[]",
          "name": "values",
          "type": "uint256[]"
        }
      ],
      "name": "TransferBatch",
      "type": "event"
    },
    {
      "anonymous": false,
      "inputs": [
        {
          "indexed": true,
          "internalType": "address",
          "name": "operator",
          "type": "address"
        },
        {
          "indexed": true,
          "internalType": "address",
          "name": "from",
          "type": "address"
        },
        {
          "indexed": true,
          "internalType": "address",
          "name": "to",
          "type": "address"
        },
        {
          "indexed": false,
          "internalType": "uint256",
          "name": "id",
          "type": "uint256"
        },
        {
          "indexed": false,
          "internalType": "uint256",
          "name": "value",
          "type": "uint256"
        }
      ],
      "name": "TransferSingle",
      "type": "event"
    },
    {
      "anonymous": false,
      "inputs": [
        {
          "indexed": false,
          "internalType": "string",
          "name": "value",
          "type": "string"
        },
        {
          "indexed": true,
          "internalType": "uint256",
          "name": "id",
          "type": "uint256"
        }
      ],
      "name": "URI",
      "type": "event"
    },
    {
      "inputs": [
        {
          "internalType": "address",
          "name": "account",
          "type": "address"
        },
        {
          "internalType": "uint256",
          "name": "id",
          "type": "uint256"
        }
      ],
      "name": "balanceOf",
      "outputs": [
        {
          "internalType": "uint256",
          "name": "",
          "type": "uint256"
        }
      ],
      "stateMutability": "view",
      "type": "function"
    },
    {
      "inputs": [
        {
          "internalType": "address[]",
          "name": "accounts",
          "type": "address[]"
        },
        {
          "internalType": "uint256[]",
          "name": "ids",
          "type": "uint256[]"
        }
      ],
      "name": "balanceOfBatch",
      "outputs": [
        {
          "internalType": "uint256[]",
          "name": "",
          "type": "uint256[]"
        }
      ],
      "stateMutability": "view",
      "type": "function"
    },
    {
      "inputs": [
        {
          "internalType": "uint256",
          "name": "min",
          "type": "uint256"
        },
        {
          "internalType": "uint256",
          "name": "max",
          "type": "uint256"
        }
      ],
      "name": "createTokenWithRange",
      "outputs": [],
      "stateMutability": "nonpayable",
      "type": "function"
    },
    {
      "inputs": [
        {
          "internalType": "string",
          "name": "_cid",
          "type": "string"
        }
      ],
      "name": "getRightsOwnersForCid",
      "outputs": [
        {
          "components": [
            {
              "internalType": "address payable[]",
              "name": "owners",
              "type": "address[]"
            },
            {
              "internalType": "uint8[]",
              "name": "shares",
              "type": "uint8[]"
            }
          ],
          "internalType": "struct CMORegistry.RegistrationInfo",
          "name": "_copyrightInfo",
          "type": "tuple"
        }
      ],
      "stateMutability": "view",
      "type": "function"
    },
    {
      "inputs": [
        {
          "internalType": "address",
          "name": "account",
          "type": "address"
        },
        {
          "internalType": "address",
          "name": "operator",
          "type": "address"
        }
      ],
      "name": "isApprovedForAll",
      "outputs": [
        {
          "internalType": "bool",
          "name": "",
          "type": "bool"
        }
      ],
      "stateMutability": "view",
      "type": "function"
    },
    {
      "inputs": [],
      "name": "noOfTokens",
      "outputs": [
        {
          "internalType": "uint256",
          "name": "",
          "type": "uint256"
        }
      ],
      "stateMutability": "view",
      "type": "function"
    },
    {
      "inputs": [],
      "name": "numOfCids",
      "outputs": [
        {
          "internalType": "uint256",
          "name": "",
          "type": "uint256"
        }
      ],
      "stateMutability": "view",
      "type": "function"
    },
    {
      "inputs": [],
      "name": "owner",
      "outputs": [
        {
          "internalType": "address",
          "name": "",
          "type": "address"
        }
      ],
      "stateMutability": "view",
      "type": "function"
    },
    {
      "inputs": [
        {
          "internalType": "address",
          "name": "",
          "type": "address"
        },
        {
          "internalType": "uint256",
          "name": "",
          "type": "uint256"
        }
      ],
      "name": "ownersToRights",
      "outputs": [
        {
          "internalType": "string",
          "name": "",
          "type": "string"
        }
      ],
      "stateMutability": "view",
      "type": "function"
    },
    {
      "inputs": [
        {
          "internalType": "string[]",
          "name": "_cids",
          "type": "string[]"
        }
      ],
      "name": "payRights",
      "outputs": [],
      "stateMutability": "payable",
      "type": "function"
    },
    {
      "inputs": [
        {
          "internalType": "uint256",
          "name": "",
          "type": "uint256"
        }
      ],
      "name": "priceRanges",
      "outputs": [
        {
          "internalType": "uint256",
          "name": "min",
          "type": "uint256"
        },
        {
          "internalType": "uint256",
          "name": "max",
          "type": "uint256"
        },
        {
          "internalType": "bool",
          "name": "exists",
          "type": "bool"
        }
      ],
      "stateMutability": "view",
      "type": "function"
    },
    {
      "inputs": [
        {
          "internalType": "uint256",
          "name": "",
          "type": "uint256"
        }
      ],
      "name": "prices",
      "outputs": [
        {
          "internalType": "uint256",
          "name": "",
          "type": "uint256"
        }
      ],
      "stateMutability": "view",
      "type": "function"
    },
    {
      "inputs": [],
      "name": "renounceOwnership",
      "outputs": [],
      "stateMutability": "nonpayable",
      "type": "function"
    },
    {
      "inputs": [
        {
          "internalType": "uint256",
          "name": "",
          "type": "uint256"
        }
      ],
      "name": "rightsCids",
      "outputs": [
        {
          "internalType": "string",
          "name": "",
          "type": "string"
        }
      ],
      "stateMutability": "view",
      "type": "function"
    },
    {
      "inputs": [
        {
          "internalType": "address",
          "name": "from",
          "type": "address"
        },
        {
          "internalType": "address",
          "name": "to",
          "type": "address"
        },
        {
          "internalType": "uint256[]",
          "name": "ids",
          "type": "uint256[]"
        },
        {
          "internalType": "uint256[]",
          "name": "amounts",
          "type": "uint256[]"
        },
        {
          "internalType": "bytes",
          "name": "data",
          "type": "bytes"
        }
      ],
      "name": "safeBatchTransferFrom",
      "outputs": [],
      "stateMutability": "nonpayable",
      "type": "function"
    },
    {
      "inputs": [
        {
          "internalType": "address",
          "name": "from",
          "type": "address"
        },
        {
          "internalType": "address",
          "name": "to",
          "type": "address"
        },
        {
          "internalType": "uint256",
          "name": "id",
          "type": "uint256"
        },
        {
          "internalType": "uint256",
          "name": "amount",
          "type": "uint256"
        },
        {
          "internalType": "bytes",
          "name": "data",
          "type": "bytes"
        }
      ],
      "name": "safeTransferFrom",
      "outputs": [],
      "stateMutability": "nonpayable",
      "type": "function"
    },
    {
      "inputs": [
        {
          "internalType": "address",
          "name": "operator",
          "type": "address"
        },
        {
          "internalType": "bool",
          "name": "approved",
          "type": "bool"
        }
      ],
      "name": "setApprovalForAll",
      "outputs": [],
      "stateMutability": "nonpayable",
      "type": "function"
    },
    {
      "inputs": [
        {
          "internalType": "uint256",
          "name": "tokenId",
          "type": "uint256"
        },
        {
          "internalType": "uint256",
          "name": "priceInWei",
          "type": "uint256"
        }
      ],
      "name": "setTokenPrice",
      "outputs": [],
      "stateMutability": "nonpayable",
      "type": "function"
    },
    {
      "inputs": [
        {
          "internalType": "string",
          "name": "newuri",
          "type": "string"
        }
      ],
      "name": "setURI",
      "outputs": [],
      "stateMutability": "nonpayable",
      "type": "function"
    },
    {
      "inputs": [
        {
          "internalType": "string",
          "name": "_cid",
          "type": "string"
        },
        {
          "internalType": "address payable[]",
          "name": "_owners",
          "type": "address[]"
        },
        {
          "internalType": "uint8[]",
          "name": "_shares",
          "type": "uint8[]"
        }
      ],
      "name": "submitCid",
      "outputs": [],
      "stateMutability": "nonpayable",
      "type": "function"
    },
    {
      "inputs": [
        {
          "internalType": "bytes4",
          "name": "interfaceId",
          "type": "bytes4"
        }
      ],
      "name": "supportsInterface",
      "outputs": [
        {
          "internalType": "bool",
          "name": "",
          "type": "bool"
        }
      ],
      "stateMutability": "view",
      "type": "function"
    },
    {
      "inputs": [
        {
          "internalType": "uint256",
          "name": "",
          "type": "uint256"
        }
      ],
      "name": "tokenIds",
      "outputs": [
        {
          "internalType": "uint256",
          "name": "",
          "type": "uint256"
        }
      ],
      "stateMutability": "view",
      "type": "function"
    },
    {
      "inputs": [
        {
          "internalType": "uint256",
          "name": "",
          "type": "uint256"
        }
      ],
      "name": "tokenSupply",
      "outputs": [
        {
          "internalType": "uint256",
          "name": "",
          "type": "uint256"
        }
      ],
      "stateMutability": "view",
      "type": "function"
    },
    {
      "inputs": [],
      "name": "totalReceivedAmount",
      "outputs": [
        {
          "internalType": "uint256",
          "name": "",
          "type": "uint256"
        }
      ],
      "stateMutability": "view",
      "type": "function"
    },
    {
      "inputs": [
        {
          "internalType": "address",
          "name": "newOwner",
          "type": "address"
        }
      ],
      "name": "transferOwnership",
      "outputs": [],
      "stateMutability": "nonpayable",
      "type": "function"
    },
    {
      "inputs": [
        {
          "internalType": "uint256",
          "name": "tokenId",
          "type": "uint256"
        },
        {
          "internalType": "uint256",
          "name": "newMin",
          "type": "uint256"
        },
        {
          "internalType": "uint256",
          "name": "newMax",
          "type": "uint256"
        }
      ],
      "name": "updateTokenWithRange",
      "outputs": [],
      "stateMutability": "nonpayable",
      "type": "function"
    },
    {
      "inputs": [
        {
          "internalType": "uint256",
          "name": "",
          "type": "uint256"
        }
      ],
      "name": "uri",
      "outputs": [
        {
          "internalType": "string",
          "name": "",
          "type": "string"
        }
      ],
      "stateMutability": "view",
      "type": "function"
    }
  ],
  "bytecode": "0x60806040523480156200001157600080fd5b506040516200556b3803806200556b83398181016040528101906200003791906200024a565b80806200004a816200010460201b60201c565b5060006200005d6200012060201b60201c565b905080600360006101000a81548173ffffffffffffffffffffffffffffffffffffffff021916908373ffffffffffffffffffffffffffffffffffffffff1602179055508073ffffffffffffffffffffffffffffffffffffffff16600073ffffffffffffffffffffffffffffffffffffffff167f8be0079c531659141344cd1fd0a4f28419497f9722a3daafe3b4186f6b6457e060405160405180910390a3505050620003c0565b80600290805190602001906200011c92919062000128565b5050565b600033905090565b82805462000136906200032c565b90600052602060002090601f0160209004810192826200015a5760008555620001a6565b82601f106200017557805160ff1916838001178555620001a6565b82800160010185558215620001a6579182015b82811115620001a557825182559160200191906001019062000188565b5b509050620001b59190620001b9565b5090565b5b80821115620001d4576000816000905550600101620001ba565b5090565b6000620001ef620001e984620002c3565b6200028f565b9050828152602081018484840111156200020857600080fd5b62000215848285620002f6565b509392505050565b600082601f8301126200022f57600080fd5b815162000241848260208601620001d8565b91505092915050565b6000602082840312156200025d57600080fd5b600082015167ffffffffffffffff8111156200027857600080fd5b62000286848285016200021d565b91505092915050565b6000604051905081810181811067ffffffffffffffff82111715620002b957620002b862000391565b5b8060405250919050565b600067ffffffffffffffff821115620002e157620002e062000391565b5b601f19601f8301169050602081019050919050565b60005b8381101562000316578082015181840152602081019050620002f9565b8381111562000326576000848401525b50505050565b600060028204905060018216806200034557607f821691505b602082108114156200035c576200035b62000362565b5b50919050565b7f4e487b7100000000000000000000000000000000000000000000000000000000600052602260045260246000fd5b7f4e487b7100000000000000000000000000000000000000000000000000000000600052604160045260246000fd5b61519b80620003d06000396000f3fe60806040526004361061019b5760003560e01c80638da5cb5b116100ec578063e01e23ab1161008a578063eb685c4711610064578063eb685c4714610637578063f242432a14610660578063f2fde38b14610689578063f4092646146106b25761019b565b8063e01e23ab14610592578063e5ff8c52146105bd578063e985e9c5146105fa5761019b565b8063a22cb465116100c6578063a22cb465146104c6578063bc31c1c1146104ef578063cfeaf3701461052c578063d58778d6146105555761019b565b80638da5cb5b14610435578063916ec087146104605780639c6cd4ec1461049d5761019b565b80632693ebf2116101595780634e1273f4116101335780634e1273f41461038d5780635af4cafb146103ca578063715018a6146103f55780637cc497de1461040c5761019b565b80632693ebf2146102fc5780632eb2c2d61461033957806336e9b344146103625761019b565b8062fdd58e146101a057806301ffc9a7146101dd57806302fe53051461021a5780630e89341c1461024357806317c770f31461028057806323b57928146102bd575b600080fd5b3480156101ac57600080fd5b506101c760048036038101906101c29190613804565b6106ce565b6040516101d49190614936565b60405180910390f35b3480156101e957600080fd5b5061020460048036038101906101ff91906138ed565b610797565b6040516102119190614626565b60405180910390f35b34801561022657600080fd5b50610241600480360381019061023c919061393f565b610879565b005b34801561024f57600080fd5b5061026a60048036038101906102659190613a17565b610901565b6040516102779190614686565b60405180910390f35b34801561028c57600080fd5b506102a760048036038101906102a2919061393f565b610995565b6040516102b49190614914565b60405180910390f35b3480156102c957600080fd5b506102e460048036038101906102df9190613a17565b610ad9565b6040516102f39392919061497a565b60405180910390f35b34801561030857600080fd5b50610323600480360381019061031e9190613a17565b610b10565b6040516103309190614936565b60405180910390f35b34801561034557600080fd5b50610360600480360381019061035b919061367a565b610b28565b005b34801561036e57600080fd5b50610377610f1e565b6040516103849190614936565b60405180910390f35b34801561039957600080fd5b506103b460048036038101906103af9190613840565b610f24565b6040516103c191906145cd565b60405180910390f35b3480156103d657600080fd5b506103df6110d5565b6040516103ec9190614936565b60405180910390f35b34801561040157600080fd5b5061040a6110db565b005b34801561041857600080fd5b50610433600480360381019061042e9190613980565b611218565b005b34801561044157600080fd5b5061044a611599565b60405161045791906144f0565b60405180910390f35b34801561046c57600080fd5b5061048760048036038101906104829190613a17565b6115c3565b6040516104949190614686565b60405180910390f35b3480156104a957600080fd5b506104c460048036038101906104bf9190613a40565b61166f565b005b3480156104d257600080fd5b506104ed60048036038101906104e891906137c8565b611837565b005b3480156104fb57600080fd5b5061051660048036038101906105119190613a17565b6119b8565b6040516105239190614936565b60405180910390f35b34801561053857600080fd5b50610553600480360381019061054e9190613a7c565b6119d0565b005b34801561056157600080fd5b5061057c60048036038101906105779190613a17565b611b6b565b6040516105899190614936565b60405180910390f35b34801561059e57600080fd5b506105a7611b8f565b6040516105b49190614936565b60405180910390f35b3480156105c957600080fd5b506105e460048036038101906105df9190613804565b611b95565b6040516105f19190614686565b60405180910390f35b34801561060657600080fd5b50610621600480360381019061061c919061363e565b611c4e565b60405161062e9190614626565b60405180910390f35b34801561064357600080fd5b5061065e60048036038101906106599190613a40565b611ce2565b005b34801561066c57600080fd5b5061068760048036038101906106829190613739565b611e2c565b005b34801561069557600080fd5b506106b060048036038101906106ab9190613615565b612144565b005b6106cc60048036038101906106c791906138ac565b6122f0565b005b60008073ffffffffffffffffffffffffffffffffffffffff168373ffffffffffffffffffffffffffffffffffffffff16141561073f576040517f08c379a000000000000000000000000000000000000000000000000000000000815260040161073690614754565b60405180910390fd5b60008083815260200190815260200160002060008473ffffffffffffffffffffffffffffffffffffffff1673ffffffffffffffffffffffffffffffffffffffff16815260200190815260200160002054905092915050565b60007fd9b67a26000000000000000000000000000000000000000000000000000000007bffffffffffffffffffffffffffffffffffffffffffffffffffffffff1916827bffffffffffffffffffffffffffffffffffffffffffffffffffffffff1916148061086257507f0e89341c000000000000000000000000000000000000000000000000000000007bffffffffffffffffffffffffffffffffffffffffffffffffffffffff1916827bffffffffffffffffffffffffffffffffffffffffffffffffffffffff1916145b80610872575061087182612795565b5b9050919050565b6108816127ff565b73ffffffffffffffffffffffffffffffffffffffff1661089f611599565b73ffffffffffffffffffffffffffffffffffffffff16146108f5576040517f08c379a00000000000000000000000000000000000000000000000000000000081526004016108ec90614814565b60405180910390fd5b6108fe81612807565b50565b60606002805461091090614ea6565b80601f016020809104026020016040519081016040528092919081815260200182805461093c90614ea6565b80156109895780601f1061095e57610100808354040283529160200191610989565b820191906000526020600020905b81548152906001019060200180831161096c57829003601f168201915b50505050509050919050565b61099d612e8c565b600b826040516109ad91906144d9565b908152602001604051809103902060405180604001604052908160008201805480602002602001604051908101604052809291908181526020018280548015610a4b57602002820191906000526020600020905b8160009054906101000a900473ffffffffffffffffffffffffffffffffffffffff1673ffffffffffffffffffffffffffffffffffffffff1681526020019060010190808311610a01575b5050505050815260200160018201805480602002602001604051908101604052809291908181526020018280548015610ac957602002820191906000526020600020906000905b82829054906101000a900460ff1660ff1681526020019060010190602082600001049283019260010382029150808411610a925790505b5050505050815250509050919050565b60086020528060005260406000206000915090508060000154908060010154908060020160009054906101000a900460ff16905083565b60096020528060005260406000206000915090505481565b8151835114610b6c576040517f08c379a0000000000000000000000000000000000000000000000000000000008152600401610b63906148d4565b60405180910390fd5b600073ffffffffffffffffffffffffffffffffffffffff168473ffffffffffffffffffffffffffffffffffffffff161415610bdc576040517f08c379a0000000000000000000000000000000000000000000000000000000008152600401610bd3906147b4565b60405180910390fd5b610be46127ff565b73ffffffffffffffffffffffffffffffffffffffff168573ffffffffffffffffffffffffffffffffffffffff161480610c2a5750610c2985610c246127ff565b611c4e565b5b610c69576040517f08c379a0000000000000000000000000000000000000000000000000000000008152600401610c60906147d4565b60405180910390fd5b6000610c736127ff565b9050610c83818787878787612821565b60005b8451811015610e89576000858281518110610cca577f4e487b7100000000000000000000000000000000000000000000000000000000600052603260045260246000fd5b602002602001015190506000858381518110610d0f577f4e487b7100000000000000000000000000000000000000000000000000000000600052603260045260246000fd5b60200260200101519050600080600084815260200190815260200160002060008b73ffffffffffffffffffffffffffffffffffffffff1673ffffffffffffffffffffffffffffffffffffffff16815260200190815260200160002054905081811015610db0576040517f08c379a0000000000000000000000000000000000000000000000000000000008152600401610da7906147f4565b60405180910390fd5b8181610dbc9190614d8b565b60008085815260200190815260200160002060008c73ffffffffffffffffffffffffffffffffffffffff1673ffffffffffffffffffffffffffffffffffffffff168152602001908152602001600020819055508160008085815260200190815260200160002060008b73ffffffffffffffffffffffffffffffffffffffff1673ffffffffffffffffffffffffffffffffffffffff1681526020019081526020016000206000828254610e6e9190614c73565b9250508190555050505080610e8290614ed8565b9050610c86565b508473ffffffffffffffffffffffffffffffffffffffff168673ffffffffffffffffffffffffffffffffffffffff168273ffffffffffffffffffffffffffffffffffffffff167f4a39dc06d4c0dbc64b70af90fd698a233a518aa5d07e595d983b8c0526c8f7fb8787604051610f009291906145ef565b60405180910390a4610f16818787878787612829565b505050505050565b60045481565b60608151835114610f6a576040517f08c379a0000000000000000000000000000000000000000000000000000000008152600401610f6190614894565b60405180910390fd5b6000835167ffffffffffffffff811115610fad577f4e487b7100000000000000000000000000000000000000000000000000000000600052604160045260246000fd5b604051908082528060200260200182016040528015610fdb5781602001602082028036833780820191505090505b50905060005b84518110156110ca57611074858281518110611026577f4e487b7100000000000000000000000000000000000000000000000000000000600052603260045260246000fd5b6020026020010151858381518110611067577f4e487b7100000000000000000000000000000000000000000000000000000000600052603260045260246000fd5b60200260200101516106ce565b8282815181106110ad577f4e487b7100000000000000000000000000000000000000000000000000000000600052603260045260246000fd5b602002602001018181525050806110c390614ed8565b9050610fe1565b508091505092915050565b60055481565b6110e36127ff565b73ffffffffffffffffffffffffffffffffffffffff16611101611599565b73ffffffffffffffffffffffffffffffffffffffff1614611157576040517f08c379a000000000000000000000000000000000000000000000000000000000815260040161114e90614814565b60405180910390fd5b600073ffffffffffffffffffffffffffffffffffffffff16600360009054906101000a900473ffffffffffffffffffffffffffffffffffffffff1673ffffffffffffffffffffffffffffffffffffffff167f8be0079c531659141344cd1fd0a4f28419497f9722a3daafe3b4186f6b6457e060405160405180910390a36000600360006101000a81548173ffffffffffffffffffffffffffffffffffffffff021916908373ffffffffffffffffffffffffffffffffffffffff160217905550565b805182511461125c576040517f08c379a0000000000000000000000000000000000000000000000000000000008152600401611253906148b4565b60405180910390fd5b6000805b82518160ff1610156112d057828160ff16815181106112a8577f4e487b7100000000000000000000000000000000000000000000000000000000600052603260045260246000fd5b6020026020010151826112bb9190614cc9565b915080806112c890614f21565b915050611260565b5060648160ff1614611317576040517f08c379a000000000000000000000000000000000000000000000000000000000815260040161130e90614734565b60405180910390fd5b6000604051806040016040528085815260200184815250905080600b8660405161134191906144d9565b9081526020016040518091039020600082015181600001908051906020019061136b929190612ea6565b506020820151816001019080519060200190611388929190612f30565b5090505060005b84518160ff161015611502576000600a6000878460ff16815181106113dd577f4e487b7100000000000000000000000000000000000000000000000000000000600052603260045260246000fd5b602002602001015173ffffffffffffffffffffffffffffffffffffffff1673ffffffffffffffffffffffffffffffffffffffff1681526020019081526020016000209050808790806001815401808255809150506001900390600052602060002001600090919091909150908051906020019061145b929190612fd7565b5080600a6000888560ff168151811061149d577f4e487b7100000000000000000000000000000000000000000000000000000000600052603260045260246000fd5b602002602001015173ffffffffffffffffffffffffffffffffffffffff1673ffffffffffffffffffffffffffffffffffffffff1681526020019081526020016000209080546114ed92919061305d565b505080806114fa90614f21565b91505061138f565b50600c8590806001815401808255809150506001900390600052602060002001600090919091909150908051906020019061153e929190612fd7565b50600d600081548092919061155290614ed8565b91905055507f2d1e2b22cb19a14d93d9b1713a17f1c413f0e711cd5089fb1974660eb8ca562485858560405161158a939291906146a8565b60405180910390a15050505050565b6000600360009054906101000a900473ffffffffffffffffffffffffffffffffffffffff16905090565b600c81815481106115d357600080fd5b9060005260206000200160009150905080546115ee90614ea6565b80601f016020809104026020016040519081016040528092919081815260200182805461161a90614ea6565b80156116675780601f1061163c57610100808354040283529160200191611667565b820191906000526020600020905b81548152906001019060200180831161164a57829003601f168201915b505050505081565b6116776127ff565b73ffffffffffffffffffffffffffffffffffffffff16611695611599565b73ffffffffffffffffffffffffffffffffffffffff16146116eb576040517f08c379a00000000000000000000000000000000000000000000000000000000081526004016116e290614814565b60405180910390fd5b8082141561172e576040517f08c379a000000000000000000000000000000000000000000000000000000000815260040161172590614854565b60405180910390fd5b6004600081548092919061174190614ed8565b919050555060066004549080600181540180825580915050600190039060005260206000200160009091909190915055604051806060016040528083815260200182815260200160011515815250600860006004548152602001908152602001600020600082015181600001556020820151816001015560408201518160020160006101000a81548160ff0219169083151502179055509050506004543373ffffffffffffffffffffffffffffffffffffffff167ff221001f6e4377cdb8deeb1cbd7868612effc3e75f73ae62189060eba58be38c600080868660405161182b9493929190614641565b60405180910390a35050565b8173ffffffffffffffffffffffffffffffffffffffff166118566127ff565b73ffffffffffffffffffffffffffffffffffffffff1614156118ad576040517f08c379a00000000000000000000000000000000000000000000000000000000081526004016118a490614874565b60405180910390fd5b80600160006118ba6127ff565b73ffffffffffffffffffffffffffffffffffffffff1673ffffffffffffffffffffffffffffffffffffffff16815260200190815260200160002060008473ffffffffffffffffffffffffffffffffffffffff1673ffffffffffffffffffffffffffffffffffffffff16815260200190815260200160002060006101000a81548160ff0219169083151502179055508173ffffffffffffffffffffffffffffffffffffffff166119676127ff565b73ffffffffffffffffffffffffffffffffffffffff167f17307eab39ab6107e8899845ad3d59bd9653f200f220920489ca2b5937696c31836040516119ac9190614626565b60405180910390a35050565b60076020528060005260406000206000915090505481565b6119d86127ff565b73ffffffffffffffffffffffffffffffffffffffff166119f6611599565b73ffffffffffffffffffffffffffffffffffffffff1614611a4c576040517f08c379a0000000000000000000000000000000000000000000000000000000008152600401611a4390614814565b60405180910390fd5b6008600084815260200190815260200160002060020160009054906101000a900460ff16611aaf576040517f08c379a0000000000000000000000000000000000000000000000000000000008152600401611aa690614834565b60405180910390fd5b823373ffffffffffffffffffffffffffffffffffffffff167ff221001f6e4377cdb8deeb1cbd7868612effc3e75f73ae62189060eba58be38c600860008781526020019081526020016000206000015460086000888152602001908152602001600020600101548686604051611b2894939291906149b1565b60405180910390a3816008600085815260200190815260200160002060000181905550806008600085815260200190815260200160002060010181905550505050565b60068181548110611b7b57600080fd5b906000526020600020016000915090505481565b600d5481565b600a6020528160005260406000208181548110611bb157600080fd5b90600052602060002001600091509150508054611bcd90614ea6565b80601f0160208091040260200160405190810160405280929190818152602001828054611bf990614ea6565b8015611c465780601f10611c1b57610100808354040283529160200191611c46565b820191906000526020600020905b815481529060010190602001808311611c2957829003601f168201915b505050505081565b6000600160008473ffffffffffffffffffffffffffffffffffffffff1673ffffffffffffffffffffffffffffffffffffffff16815260200190815260200160002060008373ffffffffffffffffffffffffffffffffffffffff1673ffffffffffffffffffffffffffffffffffffffff16815260200190815260200160002060009054906101000a900460ff16905092915050565b611cea6127ff565b73ffffffffffffffffffffffffffffffffffffffff16611d08611599565b73ffffffffffffffffffffffffffffffffffffffff1614611d5e576040517f08c379a0000000000000000000000000000000000000000000000000000000008152600401611d5590614814565b60405180910390fd5b6008600083815260200190815260200160002060020160009054906101000a900460ff16611dc1576040517f08c379a0000000000000000000000000000000000000000000000000000000008152600401611db890614834565b60405180910390fd5b806007600084815260200190815260200160002081905550813373ffffffffffffffffffffffffffffffffffffffff167f62e2c9c75b287778c0b58f1c1d83fa8f9978a33848e0b423735fd44f48ebe3c183604051611e209190614936565b60405180910390a35050565b600073ffffffffffffffffffffffffffffffffffffffff168473ffffffffffffffffffffffffffffffffffffffff161415611e9c576040517f08c379a0000000000000000000000000000000000000000000000000000000008152600401611e93906147b4565b60405180910390fd5b611ea46127ff565b73ffffffffffffffffffffffffffffffffffffffff168573ffffffffffffffffffffffffffffffffffffffff161480611eea5750611ee985611ee46127ff565b611c4e565b5b611f29576040517f08c379a0000000000000000000000000000000000000000000000000000000008152600401611f2090614794565b60405180910390fd5b6000611f336127ff565b9050611f53818787611f44886129f9565b611f4d886129f9565b87612821565b600080600086815260200190815260200160002060008873ffffffffffffffffffffffffffffffffffffffff1673ffffffffffffffffffffffffffffffffffffffff16815260200190815260200160002054905083811015611fea576040517f08c379a0000000000000000000000000000000000000000000000000000000008152600401611fe1906147f4565b60405180910390fd5b8381611ff69190614d8b565b60008087815260200190815260200160002060008973ffffffffffffffffffffffffffffffffffffffff1673ffffffffffffffffffffffffffffffffffffffff168152602001908152602001600020819055508360008087815260200190815260200160002060008873ffffffffffffffffffffffffffffffffffffffff1673ffffffffffffffffffffffffffffffffffffffff16815260200190815260200160002060008282546120a89190614c73565b925050819055508573ffffffffffffffffffffffffffffffffffffffff168773ffffffffffffffffffffffffffffffffffffffff168373ffffffffffffffffffffffffffffffffffffffff167fc3d58168c5ae7397731d063d5bbf3d657854427343f4c083240f7aacaa2d0f628888604051612125929190614951565b60405180910390a461213b828888888888612abf565b50505050505050565b61214c6127ff565b73ffffffffffffffffffffffffffffffffffffffff1661216a611599565b73ffffffffffffffffffffffffffffffffffffffff16146121c0576040517f08c379a00000000000000000000000000000000000000000000000000000000081526004016121b790614814565b60405180910390fd5b600073ffffffffffffffffffffffffffffffffffffffff168173ffffffffffffffffffffffffffffffffffffffff161415612230576040517f08c379a000000000000000000000000000000000000000000000000000000000815260040161222790614774565b60405180910390fd5b8073ffffffffffffffffffffffffffffffffffffffff16600360009054906101000a900473ffffffffffffffffffffffffffffffffffffffff1673ffffffffffffffffffffffffffffffffffffffff167f8be0079c531659141344cd1fd0a4f28419497f9722a3daafe3b4186f6b6457e060405160405180910390a380600360006101000a81548173ffffffffffffffffffffffffffffffffffffffff021916908373ffffffffffffffffffffffffffffffffffffffff16021790555050565b600034905060005b82518160ff1610156125be576000600b848360ff1681518110612344577f4e487b7100000000000000000000000000000000000000000000000000000000600052603260045260246000fd5b602002602001015160405161235991906144d9565b9081526020016040518091039020604051806040016040529081600082018054806020026020016040519081016040528092919081815260200182805480156123f757602002820191906000526020600020905b8160009054906101000a900473ffffffffffffffffffffffffffffffffffffffff1673ffffffffffffffffffffffffffffffffffffffff16815260200190600101908083116123ad575b505050505081526020016001820180548060200260200160405190810160405280929190818152602001828054801561247557602002820191906000526020600020906000905b82829054906101000a900460ff1660ff168152602001906001019060208260000104928301926001038202915080841161243e5790505b505050505081525050905060005b8160000151518160ff1610156125a957600061250583602001518360ff16815181106124d8577f4e487b7100000000000000000000000000000000000000000000000000000000600052603260045260246000fd5b602002602001015160ff166124f7606488612c8f90919063ffffffff16565b612ca590919063ffffffff16565b905082600001518260ff1681518110612547577f4e487b7100000000000000000000000000000000000000000000000000000000600052603260045260246000fd5b602002602001015173ffffffffffffffffffffffffffffffffffffffff166108fc829081150290604051600060405180830381858888f19350505050158015612594573d6000803e3d6000fd5b505080806125a190614f21565b915050612483565b505080806125b690614f21565b9150506122f8565b506125d481600554612cbb90919063ffffffff16565b503373ffffffffffffffffffffffffffffffffffffffff167ffa2803e65daee5bfd799f98d65aff9e8383e0ea6bfa38c0840617e9eec26200a8260405161261b9190614936565b60405180910390a2600080600090505b60068054905081101561272257600060068281548110612674577f4e487b7100000000000000000000000000000000000000000000000000000000600052603260045260246000fd5b906000526020600020015490506008600082815260200190815260200160002060000154841180156126bc575060086000828152602001908152602001600020600101548411155b1561270e57600682815481106126fb577f4e487b7100000000000000000000000000000000000000000000000000000000600052603260045260246000fd5b9060005260206000200154925050612722565b50808061271a90614ed8565b91505061262b565b50600061274b600760008481526020019081526020016000205484612c8f90919063ffffffff16565b9050612773816009600085815260200190815260200160002054612cbb90919063ffffffff16565b5061278f33838360405180602001604052806000815250612cd1565b50505050565b60007f01ffc9a7000000000000000000000000000000000000000000000000000000007bffffffffffffffffffffffffffffffffffffffffffffffffffffffff1916827bffffffffffffffffffffffffffffffffffffffffffffffffffffffff1916149050919050565b600033905090565b806002908051906020019061281d929190612fd7565b5050565b505050505050565b6128488473ffffffffffffffffffffffffffffffffffffffff16612ce3565b156129f1578373ffffffffffffffffffffffffffffffffffffffff1663bc197c8187878686866040518663ffffffff1660e01b815260040161288e95949392919061450b565b602060405180830381600087803b1580156128a857600080fd5b505af19250505080156128d957506040513d601f19601f820116820180604052508101906128d69190613916565b60015b612968576128e5615025565b806128f0575061292d565b806040517f08c379a00000000000000000000000000000000000000000000000000000000081526004016129249190614686565b60405180910390fd5b6040517f08c379a000000000000000000000000000000000000000000000000000000000815260040161295f906146f4565b60405180910390fd5b63bc197c8160e01b7bffffffffffffffffffffffffffffffffffffffffffffffffffffffff1916817bffffffffffffffffffffffffffffffffffffffffffffffffffffffff1916146129ef576040517f08c379a00000000000000000000000000000000000000000000000000000000081526004016129e690614714565b60405180910390fd5b505b505050505050565b60606000600167ffffffffffffffff811115612a3e577f4e487b7100000000000000000000000000000000000000000000000000000000600052604160045260246000fd5b604051908082528060200260200182016040528015612a6c5781602001602082028036833780820191505090505b5090508281600081518110612aaa577f4e487b7100000000000000000000000000000000000000000000000000000000600052603260045260246000fd5b60200260200101818152505080915050919050565b612ade8473ffffffffffffffffffffffffffffffffffffffff16612ce3565b15612c87578373ffffffffffffffffffffffffffffffffffffffff1663f23a6e6187878686866040518663ffffffff1660e01b8152600401612b24959493929190614573565b602060405180830381600087803b158015612b3e57600080fd5b505af1925050508015612b6f57506040513d601f19601f82011682018060405250810190612b6c9190613916565b60015b612bfe57612b7b615025565b80612b865750612bc3565b806040517f08c379a0000000000000000000000000000000000000000000000000000000008152600401612bba9190614686565b60405180910390fd5b6040517f08c379a0000000000000000000000000000000000000000000000000000000008152600401612bf5906146f4565b60405180910390fd5b63f23a6e6160e01b7bffffffffffffffffffffffffffffffffffffffffffffffffffffffff1916817bffffffffffffffffffffffffffffffffffffffffffffffffffffffff191614612c85576040517f08c379a0000000000000000000000000000000000000000000000000000000008152600401612c7c90614714565b60405180910390fd5b505b505050505050565b60008183612c9d9190614d00565b905092915050565b60008183612cb39190614d31565b905092915050565b60008183612cc99190614c73565b905092915050565b612cdd84848484612cf6565b50505050565b600080823b905060008111915050919050565b600073ffffffffffffffffffffffffffffffffffffffff168473ffffffffffffffffffffffffffffffffffffffff161415612d66576040517f08c379a0000000000000000000000000000000000000000000000000000000008152600401612d5d906148f4565b60405180910390fd5b6000612d706127ff565b9050612d9181600087612d82886129f9565b612d8b886129f9565b87612821565b8260008086815260200190815260200160002060008773ffffffffffffffffffffffffffffffffffffffff1673ffffffffffffffffffffffffffffffffffffffff1681526020019081526020016000206000828254612df09190614c73565b925050819055508473ffffffffffffffffffffffffffffffffffffffff16600073ffffffffffffffffffffffffffffffffffffffff168273ffffffffffffffffffffffffffffffffffffffff167fc3d58168c5ae7397731d063d5bbf3d657854427343f4c083240f7aacaa2d0f628787604051612e6e929190614951565b60405180910390a4612e8581600087878787612abf565b5050505050565b604051806040016040528060608152602001606081525090565b828054828255906000526020600020908101928215612f1f579160200282015b82811115612f1e5782518260006101000a81548173ffffffffffffffffffffffffffffffffffffffff021916908373ffffffffffffffffffffffffffffffffffffffff16021790555091602001919060010190612ec6565b5b509050612f2c91906130c5565b5090565b82805482825590600052602060002090601f01602090048101928215612fc65791602002820160005b83821115612f9757835183826101000a81548160ff021916908360ff1602179055509260200192600101602081600001049283019260010302612f59565b8015612fc45782816101000a81549060ff0219169055600101602081600001049283019260010302612f97565b505b509050612fd391906130c5565b5090565b828054612fe390614ea6565b90600052602060002090601f016020900481019282613005576000855561304c565b82601f1061301e57805160ff191683800117855561304c565b8280016001018555821561304c579182015b8281111561304b578251825591602001919060010190613030565b5b50905061305991906130c5565b5090565b8280548282559060005260206000209081019282156130b45760005260206000209182015b828111156130b357828290805461309890614ea6565b6130a39291906130e2565b5091600101919060010190613082565b5b5090506130c1919061316f565b5090565b5b808211156130de5760008160009055506001016130c6565b5090565b8280546130ee90614ea6565b90600052602060002090601f016020900481019282613110576000855561315e565b82601f10613121578054855561315e565b8280016001018555821561315e57600052602060002091601f016020900482015b8281111561315d578254825591600101919060010190613142565b5b50905061316b91906130c5565b5090565b5b8082111561318f57600081816131869190613193565b50600101613170565b5090565b50805461319f90614ea6565b6000825580601f106131b157506131d0565b601f0160209004906000526020600020908101906131cf91906130c5565b5b50565b60006131e66131e184614a27565b6149f6565b9050808382526020820190508285602086028201111561320557600080fd5b60005b85811015613235578161321b888261345c565b845260208401935060208301925050600181019050613208565b5050509392505050565b600061325261324d84614a53565b6149f6565b9050808382526020820190508285602086028201111561327157600080fd5b60005b858110156132a157816132878882613471565b845260208401935060208301925050600181019050613274565b5050509392505050565b60006132be6132b984614a7f565b6149f6565b9050808382526020820190508260005b858110156132fe57813585016132e488826135c1565b8452602084019350602083019250506001810190506132ce565b5050509392505050565b600061331b61331684614aab565b6149f6565b9050808382526020820190508285602086028201111561333a57600080fd5b60005b8581101561336a578161335088826135eb565b84526020840193506020830192505060018101905061333d565b5050509392505050565b600061338761338284614ad7565b6149f6565b905080838252602082019050828560208602820111156133a657600080fd5b60005b858110156133d657816133bc8882613600565b8452602084019350602083019250506001810190506133a9565b5050509392505050565b60006133f36133ee84614b03565b6149f6565b90508281526020810184848401111561340b57600080fd5b613416848285614e64565b509392505050565b600061343161342c84614b33565b6149f6565b90508281526020810184848401111561344957600080fd5b613454848285614e64565b509392505050565b60008135905061346b816150db565b92915050565b600081359050613480816150f2565b92915050565b600082601f83011261349757600080fd5b81356134a78482602086016131d3565b91505092915050565b600082601f8301126134c157600080fd5b81356134d184826020860161323f565b91505092915050565b600082601f8301126134eb57600080fd5b81356134fb8482602086016132ab565b91505092915050565b600082601f83011261351557600080fd5b8135613525848260208601613308565b91505092915050565b600082601f83011261353f57600080fd5b813561354f848260208601613374565b91505092915050565b60008135905061356781615109565b92915050565b60008135905061357c81615120565b92915050565b60008151905061359181615120565b92915050565b600082601f8301126135a857600080fd5b81356135b88482602086016133e0565b91505092915050565b600082601f8301126135d257600080fd5b81356135e284826020860161341e565b91505092915050565b6000813590506135fa81615137565b92915050565b60008135905061360f8161514e565b92915050565b60006020828403121561362757600080fd5b60006136358482850161345c565b91505092915050565b6000806040838503121561365157600080fd5b600061365f8582860161345c565b92505060206136708582860161345c565b9150509250929050565b600080600080600060a0868803121561369257600080fd5b60006136a08882890161345c565b95505060206136b18882890161345c565b945050604086013567ffffffffffffffff8111156136ce57600080fd5b6136da88828901613504565b935050606086013567ffffffffffffffff8111156136f757600080fd5b61370388828901613504565b925050608086013567ffffffffffffffff81111561372057600080fd5b61372c88828901613597565b9150509295509295909350565b600080600080600060a0868803121561375157600080fd5b600061375f8882890161345c565b95505060206137708882890161345c565b9450506040613781888289016135eb565b9350506060613792888289016135eb565b925050608086013567ffffffffffffffff8111156137af57600080fd5b6137bb88828901613597565b9150509295509295909350565b600080604083850312156137db57600080fd5b60006137e98582860161345c565b92505060206137fa85828601613558565b9150509250929050565b6000806040838503121561381757600080fd5b60006138258582860161345c565b9250506020613836858286016135eb565b9150509250929050565b6000806040838503121561385357600080fd5b600083013567ffffffffffffffff81111561386d57600080fd5b61387985828601613486565b925050602083013567ffffffffffffffff81111561389657600080fd5b6138a285828601613504565b9150509250929050565b6000602082840312156138be57600080fd5b600082013567ffffffffffffffff8111156138d857600080fd5b6138e4848285016134da565b91505092915050565b6000602082840312156138ff57600080fd5b600061390d8482850161356d565b91505092915050565b60006020828403121561392857600080fd5b600061393684828501613582565b91505092915050565b60006020828403121561395157600080fd5b600082013567ffffffffffffffff81111561396b57600080fd5b613977848285016135c1565b91505092915050565b60008060006060848603121561399557600080fd5b600084013567ffffffffffffffff8111156139af57600080fd5b6139bb868287016135c1565b935050602084013567ffffffffffffffff8111156139d857600080fd5b6139e4868287016134b0565b925050604084013567ffffffffffffffff811115613a0157600080fd5b613a0d8682870161352e565b9150509250925092565b600060208284031215613a2957600080fd5b6000613a37848285016135eb565b91505092915050565b60008060408385031215613a5357600080fd5b6000613a61858286016135eb565b9250506020613a72858286016135eb565b9150509250929050565b600080600060608486031215613a9157600080fd5b6000613a9f868287016135eb565b9350506020613ab0868287016135eb565b9250506040613ac1868287016135eb565b9150509250925092565b6000613ad78383613b13565b60208301905092915050565b6000613aef83836144ac565b60208301905092915050565b6000613b0783836144ca565b60208301905092915050565b613b1c81614dd1565b82525050565b613b2b81614dbf565b82525050565b6000613b3c82614b93565b613b468185614bf1565b9350613b5183614b63565b8060005b83811015613b82578151613b698882613acb565b9750613b7483614bca565b925050600181019050613b55565b5085935050505092915050565b6000613b9a82614b93565b613ba48185614c02565b9350613baf83614b63565b8060005b83811015613be0578151613bc78882613acb565b9750613bd283614bca565b925050600181019050613bb3565b5085935050505092915050565b6000613bf882614b9e565b613c028185614c13565b9350613c0d83614b73565b8060005b83811015613c3e578151613c258882613ae3565b9750613c3083614bd7565b925050600181019050613c11565b5085935050505092915050565b6000613c5682614ba9565b613c608185614c24565b9350613c6b83614b83565b8060005b83811015613c9c578151613c838882613afb565b9750613c8e83614be4565b925050600181019050613c6f565b5085935050505092915050565b6000613cb482614ba9565b613cbe8185614c35565b9350613cc983614b83565b8060005b83811015613cfa578151613ce18882613afb565b9750613cec83614be4565b925050600181019050613ccd565b5085935050505092915050565b613d1081614de3565b82525050565b6000613d2182614bb4565b613d2b8185614c46565b9350613d3b818560208601614e73565b613d4481615007565b840191505092915050565b613d5881614e52565b82525050565b6000613d6982614bbf565b613d738185614c57565b9350613d83818560208601614e73565b613d8c81615007565b840191505092915050565b6000613da282614bbf565b613dac8185614c68565b9350613dbc818560208601614e73565b80840191505092915050565b6000613dd5603483614c57565b91507f455243313135353a207472616e7366657220746f206e6f6e204552433131353560008301527f526563656976657220696d706c656d656e7465720000000000000000000000006020830152604082019050919050565b6000613e3b602883614c57565b91507f455243313135353a204552433131353552656365697665722072656a6563746560008301527f6420746f6b656e730000000000000000000000000000000000000000000000006020830152604082019050919050565b6000613ea1602183614c57565b91507f53756d206f6620736861726573206d7573742062652065786163746c7920313060008301527f30000000000000000000000000000000000000000000000000000000000000006020830152604082019050919050565b6000613f07602b83614c57565b91507f455243313135353a2062616c616e636520717565727920666f7220746865207a60008301527f65726f20616464726573730000000000000000000000000000000000000000006020830152604082019050919050565b6000613f6d602683614c57565b91507f4f776e61626c653a206e6577206f776e657220697320746865207a65726f206160008301527f64647265737300000000000000000000000000000000000000000000000000006020830152604082019050919050565b6000613fd3602983614c57565b91507f455243313135353a2063616c6c6572206973206e6f74206f776e6572206e6f7260008301527f20617070726f76656400000000000000000000000000000000000000000000006020830152604082019050919050565b6000614039602583614c57565b91507f455243313135353a207472616e7366657220746f20746865207a65726f20616460008301527f64726573730000000000000000000000000000000000000000000000000000006020830152604082019050919050565b600061409f603283614c57565b91507f455243313135353a207472616e736665722063616c6c6572206973206e6f742060008301527f6f776e6572206e6f7220617070726f76656400000000000000000000000000006020830152604082019050919050565b6000614105602a83614c57565b91507f455243313135353a20696e73756666696369656e742062616c616e636520666f60008301527f72207472616e73666572000000000000000000000000000000000000000000006020830152604082019050919050565b600061416b602083614c57565b91507f4f776e61626c653a2063616c6c6572206973206e6f7420746865206f776e65726000830152602082019050919050565b60006141ab602483614c57565b91507f4552433131353546696e616c3a20746f6b656e496420646f6573206e6f74206560008301527f78697374000000000000000000000000000000000000000000000000000000006020830152604082019050919050565b6000614211602883614c57565b91507f4552433131353546696e616c3a206d696e2063616e6e6f74206265206571756160008301527f6c20746f206d61780000000000000000000000000000000000000000000000006020830152604082019050919050565b6000614277602983614c57565b91507f455243313135353a2073657474696e6720617070726f76616c2073746174757360008301527f20666f722073656c6600000000000000000000000000000000000000000000006020830152604082019050919050565b60006142dd602983614c57565b91507f455243313135353a206163636f756e747320616e6420696473206c656e67746860008301527f206d69736d6174636800000000000000000000000000000000000000000000006020830152604082019050919050565b6000614343602e83614c57565b91507f45616368206f776e65722073686f756c6420686176652069747320636f72726560008301527f73706f6e64696e672073686172650000000000000000000000000000000000006020830152604082019050919050565b60006143a9602883614c57565b91507f455243313135353a2069647320616e6420616d6f756e7473206c656e6774682060008301527f6d69736d617463680000000000000000000000000000000000000000000000006020830152604082019050919050565b600061440f602183614c57565b91507f455243313135353a206d696e7420746f20746865207a65726f2061646472657360008301527f73000000000000000000000000000000000000000000000000000000000000006020830152604082019050919050565b600060408301600083015184820360008601526144858282613b31565b9150506020830151848203602086015261449f8282613c4b565b9150508091505092915050565b6144b581614e3b565b82525050565b6144c481614e3b565b82525050565b6144d381614e45565b82525050565b60006144e58284613d97565b915081905092915050565b60006020820190506145056000830184613b22565b92915050565b600060a0820190506145206000830188613b22565b61452d6020830187613b22565b818103604083015261453f8186613bed565b905081810360608301526145538185613bed565b905081810360808301526145678184613d16565b90509695505050505050565b600060a0820190506145886000830188613b22565b6145956020830187613b22565b6145a260408301866144bb565b6145af60608301856144bb565b81810360808301526145c18184613d16565b90509695505050505050565b600060208201905081810360008301526145e78184613bed565b905092915050565b600060408201905081810360008301526146098185613bed565b9050818103602083015261461d8184613bed565b90509392505050565b600060208201905061463b6000830184613d07565b92915050565b60006080820190506146566000830187613d4f565b6146636020830186613d4f565b61467060408301856144bb565b61467d60608301846144bb565b95945050505050565b600060208201905081810360008301526146a08184613d5e565b905092915050565b600060608201905081810360008301526146c28186613d5e565b905081810360208301526146d68185613b8f565b905081810360408301526146ea8184613ca9565b9050949350505050565b6000602082019050818103600083015261470d81613dc8565b9050919050565b6000602082019050818103600083015261472d81613e2e565b9050919050565b6000602082019050818103600083015261474d81613e94565b9050919050565b6000602082019050818103600083015261476d81613efa565b9050919050565b6000602082019050818103600083015261478d81613f60565b9050919050565b600060208201905081810360008301526147ad81613fc6565b9050919050565b600060208201905081810360008301526147cd8161402c565b9050919050565b600060208201905081810360008301526147ed81614092565b9050919050565b6000602082019050818103600083015261480d816140f8565b9050919050565b6000602082019050818103600083015261482d8161415e565b9050919050565b6000602082019050818103600083015261484d8161419e565b9050919050565b6000602082019050818103600083015261486d81614204565b9050919050565b6000602082019050818103600083015261488d8161426a565b9050919050565b600060208201905081810360008301526148ad816142d0565b9050919050565b600060208201905081810360008301526148cd81614336565b9050919050565b600060208201905081810360008301526148ed8161439c565b9050919050565b6000602082019050818103600083015261490d81614402565b9050919050565b6000602082019050818103600083015261492e8184614468565b905092915050565b600060208201905061494b60008301846144bb565b92915050565b600060408201905061496660008301856144bb565b61497360208301846144bb565b9392505050565b600060608201905061498f60008301866144bb565b61499c60208301856144bb565b6149a96040830184613d07565b949350505050565b60006080820190506149c660008301876144bb565b6149d360208301866144bb565b6149e060408301856144bb565b6149ed60608301846144bb565b95945050505050565b6000604051905081810181811067ffffffffffffffff82111715614a1d57614a1c614fd8565b5b8060405250919050565b600067ffffffffffffffff821115614a4257614a41614fd8565b5b602082029050602081019050919050565b600067ffffffffffffffff821115614a6e57614a6d614fd8565b5b602082029050602081019050919050565b600067ffffffffffffffff821115614a9a57614a99614fd8565b5b602082029050602081019050919050565b600067ffffffffffffffff821115614ac657614ac5614fd8565b5b602082029050602081019050919050565b600067ffffffffffffffff821115614af257614af1614fd8565b5b602082029050602081019050919050565b600067ffffffffffffffff821115614b1e57614b1d614fd8565b5b601f19601f8301169050602081019050919050565b600067ffffffffffffffff821115614b4e57614b4d614fd8565b5b601f19601f8301169050602081019050919050565b6000819050602082019050919050565b6000819050602082019050919050565b6000819050602082019050919050565b600081519050919050565b600081519050919050565b600081519050919050565b600081519050919050565b600081519050919050565b6000602082019050919050565b6000602082019050919050565b6000602082019050919050565b600082825260208201905092915050565b600082825260208201905092915050565b600082825260208201905092915050565b600082825260208201905092915050565b600082825260208201905092915050565b600082825260208201905092915050565b600082825260208201905092915050565b600081905092915050565b6000614c7e82614e3b565b9150614c8983614e3b565b9250827fffffffffffffffffffffffffffffffffffffffffffffffffffffffffffffffff03821115614cbe57614cbd614f4b565b5b828201905092915050565b6000614cd482614e45565b9150614cdf83614e45565b92508260ff03821115614cf557614cf4614f4b565b5b828201905092915050565b6000614d0b82614e3b565b9150614d1683614e3b565b925082614d2657614d25614f7a565b5b828204905092915050565b6000614d3c82614e3b565b9150614d4783614e3b565b9250817fffffffffffffffffffffffffffffffffffffffffffffffffffffffffffffffff0483118215151615614d8057614d7f614f4b565b5b828202905092915050565b6000614d9682614e3b565b9150614da183614e3b565b925082821015614db457614db3614f4b565b5b828203905092915050565b6000614dca82614e1b565b9050919050565b6000614ddc82614e1b565b9050919050565b60008115159050919050565b60007fffffffff0000000000000000000000000000000000000000000000000000000082169050919050565b600073ffffffffffffffffffffffffffffffffffffffff82169050919050565b6000819050919050565b600060ff82169050919050565b6000614e5d82614e3b565b9050919050565b82818337600083830152505050565b60005b83811015614e91578082015181840152602081019050614e76565b83811115614ea0576000848401525b50505050565b60006002820490506001821680614ebe57607f821691505b60208210811415614ed257614ed1614fa9565b5b50919050565b6000614ee382614e3b565b91507fffffffffffffffffffffffffffffffffffffffffffffffffffffffffffffffff821415614f1657614f15614f4b565b5b600182019050919050565b6000614f2c82614e45565b915060ff821415614f4057614f3f614f4b565b5b600182019050919050565b7f4e487b7100000000000000000000000000000000000000000000000000000000600052601160045260246000fd5b7f4e487b7100000000000000000000000000000000000000000000000000000000600052601260045260246000fd5b7f4e487b7100000000000000000000000000000000000000000000000000000000600052602260045260246000fd5b7f4e487b7100000000000000000000000000000000000000000000000000000000600052604160045260246000fd5b6000601f19601f8301169050919050565b60008160e01c9050919050565b600060443d1015615035576150d8565b60046000803e615046600051615018565b6308c379a0811461505757506150d8565b60405160043d036004823e80513d602482011167ffffffffffffffff82111715615083575050506150d8565b808201805167ffffffffffffffff8111156150a25750505050506150d8565b8060208301013d85018111156150bd575050505050506150d8565b6150c682615007565b60208401016040528296505050505050505b90565b6150e481614dbf565b81146150ef57600080fd5b50565b6150fb81614dd1565b811461510657600080fd5b50565b61511281614de3565b811461511d57600080fd5b50565b61512981614def565b811461513457600080fd5b50565b61514081614e3b565b811461514b57600080fd5b50565b61515781614e45565b811461516257600080fd5b5056fea26469706673582212205567c90e73b6cee8396348ee5db6f0962f78d4445b35200606325e76d91c5d7864736f6c63430008000033",
  "linkReferences": {},
  "deployedLinkReferences": {}
}