{
  "_format": "hh-sol-artifact-1",
  "contractName": "TipJar",
  "sourceName": "contracts/TipJar.sol",
  "abi": [
    {
      "inputs": [
        {
          "internalType": "string",
          "name": "uri",
          "type": "string"
        }
      ],
      "stateMutability": "nonpayable",
      "type": "constructor"
    },
    {
      "anonymous": false,
      "inputs": [
        {
          "indexed": true,
          "internalType": "address",
          "name": "account",
          "type": "address"
        },
        {
          "indexed": true,
          "internalType": "address",
          "name": "operator",
          "type": "address"
        },
        {
          "indexed": false,
          "internalType": "bool",
          "name": "approved",
          "type": "bool"
        }
      ],
      "name": "ApprovalForAll",
      "type": "event"
    },
    {
      "anonymous": false,
      "inputs": [
        {
          "indexed": true,
          "internalType": "address",
          "name": "previousOwner",
          "type": "address"
        },
        {
          "indexed": true,
          "internalType": "address",
          "name": "newOwner",
          "type": "address"
        }
      ],
      "name": "OwnershipTransferred",
      "type": "event"
    },
    {
      "anonymous": false,
      "inputs": [
        {
          "indexed": true,
          "internalType": "address",
          "name": "payer",
          "type": "address"
        },
        {
          "indexed": false,
          "internalType": "uint256",
          "name": "value",
          "type": "uint256"
        }
      ],
      "name": "RightsPaymentReceived",
      "type": "event"
    },
    {
      "anonymous": false,
      "inputs": [
        {
          "indexed": true,
          "internalType": "address",
          "name": "actor",
          "type": "address"
        },
        {
          "indexed": true,
          "internalType": "uint256",
          "name": "tokenId",
          "type": "uint256"
        },
        {
          "indexed": false,
          "internalType": "uint256",
          "name": "price",
          "type": "uint256"
        }
      ],
      "name": "TokenPriceUpdated",
      "type": "event"
    },
    {
      "anonymous": false,
      "inputs": [
        {
          "indexed": true,
          "internalType": "address",
          "name": "actor",
          "type": "address"
        },
        {
          "indexed": true,
          "internalType": "uint256",
          "name": "tokenId",
          "type": "uint256"
        },
        {
          "indexed": false,
          "internalType": "uint256",
          "name": "oldMin",
          "type": "uint256"
        },
        {
          "indexed": false,
          "internalType": "uint256",
          "name": "oldMax",
          "type": "uint256"
        },
        {
          "indexed": false,
          "internalType": "uint256",
          "name": "newMin",
          "type": "uint256"
        },
        {
          "indexed": false,
          "internalType": "uint256",
          "name": "newMax",
          "type": "uint256"
        }
      ],
      "name": "TokenRangeUpdated",
      "type": "event"
    },
    {
      "anonymous": false,
      "inputs": [
        {
          "indexed": true,
          "internalType": "address",
          "name": "operator",
          "type": "address"
        },
        {
          "indexed": true,
          "internalType": "address",
          "name": "from",
          "type": "address"
        },
        {
          "indexed": true,
          "internalType": "address",
          "name": "to",
          "type": "address"
        },
        {
          "indexed": false,
          "internalType": "uint256[]",
          "name": "ids",
          "type": "uint256[]"
        },
        {
          "indexed": false,
          "internalType": "uint256[]",
          "name": "values",
          "type": "uint256[]"
        }
      ],
      "name": "TransferBatch",
      "type": "event"
    },
    {
      "anonymous": false,
      "inputs": [
        {
          "indexed": true,
          "internalType": "address",
          "name": "operator",
          "type": "address"
        },
        {
          "indexed": true,
          "internalType": "address",
          "name": "from",
          "type": "address"
        },
        {
          "indexed": true,
          "internalType": "address",
          "name": "to",
          "type": "address"
        },
        {
          "indexed": false,
          "internalType": "uint256",
          "name": "id",
          "type": "uint256"
        },
        {
          "indexed": false,
          "internalType": "uint256",
          "name": "value",
          "type": "uint256"
        }
      ],
      "name": "TransferSingle",
      "type": "event"
    },
    {
      "anonymous": false,
      "inputs": [
        {
          "indexed": false,
          "internalType": "string",
          "name": "value",
          "type": "string"
        },
        {
          "indexed": true,
          "internalType": "uint256",
          "name": "id",
          "type": "uint256"
        }
      ],
      "name": "URI",
      "type": "event"
    },
    {
      "inputs": [
        {
          "internalType": "address",
          "name": "account",
          "type": "address"
        },
        {
          "internalType": "uint256",
          "name": "id",
          "type": "uint256"
        }
      ],
      "name": "balanceOf",
      "outputs": [
        {
          "internalType": "uint256",
          "name": "",
          "type": "uint256"
        }
      ],
      "stateMutability": "view",
      "type": "function"
    },
    {
      "inputs": [
        {
          "internalType": "address[]",
          "name": "accounts",
          "type": "address[]"
        },
        {
          "internalType": "uint256[]",
          "name": "ids",
          "type": "uint256[]"
        }
      ],
      "name": "balanceOfBatch",
      "outputs": [
        {
          "internalType": "uint256[]",
          "name": "",
          "type": "uint256[]"
        }
      ],
      "stateMutability": "view",
      "type": "function"
    },
    {
      "inputs": [
        {
          "internalType": "uint256",
          "name": "min",
          "type": "uint256"
        },
        {
          "internalType": "uint256",
          "name": "max",
          "type": "uint256"
        }
      ],
      "name": "createTokenWithRange",
      "outputs": [],
      "stateMutability": "nonpayable",
      "type": "function"
    },
    {
      "inputs": [
        {
          "internalType": "address",
          "name": "account",
          "type": "address"
        },
        {
          "internalType": "address",
          "name": "operator",
          "type": "address"
        }
      ],
      "name": "isApprovedForAll",
      "outputs": [
        {
          "internalType": "bool",
          "name": "",
          "type": "bool"
        }
      ],
      "stateMutability": "view",
      "type": "function"
    },
    {
      "inputs": [],
      "name": "noOfTokens",
      "outputs": [
        {
          "internalType": "uint256",
          "name": "",
          "type": "uint256"
        }
      ],
      "stateMutability": "view",
      "type": "function"
    },
    {
      "inputs": [],
      "name": "owner",
      "outputs": [
        {
          "internalType": "address",
          "name": "",
          "type": "address"
        }
      ],
      "stateMutability": "view",
      "type": "function"
    },
    {
      "inputs": [
        {
          "internalType": "uint256",
          "name": "",
          "type": "uint256"
        }
      ],
      "name": "priceRanges",
      "outputs": [
        {
          "internalType": "uint256",
          "name": "min",
          "type": "uint256"
        },
        {
          "internalType": "uint256",
          "name": "max",
          "type": "uint256"
        },
        {
          "internalType": "bool",
          "name": "exists",
          "type": "bool"
        }
      ],
      "stateMutability": "view",
      "type": "function"
    },
    {
      "inputs": [
        {
          "internalType": "uint256",
          "name": "",
          "type": "uint256"
        }
      ],
      "name": "prices",
      "outputs": [
        {
          "internalType": "uint256",
          "name": "",
          "type": "uint256"
        }
      ],
      "stateMutability": "view",
      "type": "function"
    },
    {
      "inputs": [],
      "name": "renounceOwnership",
      "outputs": [],
      "stateMutability": "nonpayable",
      "type": "function"
    },
    {
      "inputs": [
        {
          "internalType": "address",
          "name": "from",
          "type": "address"
        },
        {
          "internalType": "address",
          "name": "to",
          "type": "address"
        },
        {
          "internalType": "uint256[]",
          "name": "ids",
          "type": "uint256[]"
        },
        {
          "internalType": "uint256[]",
          "name": "amounts",
          "type": "uint256[]"
        },
        {
          "internalType": "bytes",
          "name": "data",
          "type": "bytes"
        }
      ],
      "name": "safeBatchTransferFrom",
      "outputs": [],
      "stateMutability": "nonpayable",
      "type": "function"
    },
    {
      "inputs": [
        {
          "internalType": "address",
          "name": "from",
          "type": "address"
        },
        {
          "internalType": "address",
          "name": "to",
          "type": "address"
        },
        {
          "internalType": "uint256",
          "name": "id",
          "type": "uint256"
        },
        {
          "internalType": "uint256",
          "name": "amount",
          "type": "uint256"
        },
        {
          "internalType": "bytes",
          "name": "data",
          "type": "bytes"
        }
      ],
      "name": "safeTransferFrom",
      "outputs": [],
      "stateMutability": "nonpayable",
      "type": "function"
    },
    {
      "inputs": [
        {
          "internalType": "address",
          "name": "operator",
          "type": "address"
        },
        {
          "internalType": "bool",
          "name": "approved",
          "type": "bool"
        }
      ],
      "name": "setApprovalForAll",
      "outputs": [],
      "stateMutability": "nonpayable",
      "type": "function"
    },
    {
      "inputs": [
        {
          "internalType": "uint256",
          "name": "tokenId",
          "type": "uint256"
        },
        {
          "internalType": "uint256",
          "name": "priceInWei",
          "type": "uint256"
        }
      ],
      "name": "setTokenPrice",
      "outputs": [],
      "stateMutability": "nonpayable",
      "type": "function"
    },
    {
      "inputs": [
        {
          "internalType": "string",
          "name": "newuri",
          "type": "string"
        }
      ],
      "name": "setURI",
      "outputs": [],
      "stateMutability": "nonpayable",
      "type": "function"
    },
    {
      "inputs": [
        {
          "internalType": "bytes4",
          "name": "interfaceId",
          "type": "bytes4"
        }
      ],
      "name": "supportsInterface",
      "outputs": [
        {
          "internalType": "bool",
          "name": "",
          "type": "bool"
        }
      ],
      "stateMutability": "view",
      "type": "function"
    },
    {
      "inputs": [
        {
          "internalType": "uint256",
          "name": "",
          "type": "uint256"
        }
      ],
      "name": "tokenIds",
      "outputs": [
        {
          "internalType": "uint256",
          "name": "",
          "type": "uint256"
        }
      ],
      "stateMutability": "view",
      "type": "function"
    },
    {
      "inputs": [
        {
          "internalType": "uint256",
          "name": "",
          "type": "uint256"
        }
      ],
      "name": "tokenSupply",
      "outputs": [
        {
          "internalType": "uint256",
          "name": "",
          "type": "uint256"
        }
      ],
      "stateMutability": "view",
      "type": "function"
    },
    {
      "inputs": [],
      "name": "totalReceivedAmount",
      "outputs": [
        {
          "internalType": "uint256",
          "name": "",
          "type": "uint256"
        }
      ],
      "stateMutability": "view",
      "type": "function"
    },
    {
      "inputs": [
        {
          "internalType": "address",
          "name": "newOwner",
          "type": "address"
        }
      ],
      "name": "transferOwnership",
      "outputs": [],
      "stateMutability": "nonpayable",
      "type": "function"
    },
    {
      "inputs": [
        {
          "internalType": "uint256",
          "name": "tokenId",
          "type": "uint256"
        },
        {
          "internalType": "uint256",
          "name": "newMin",
          "type": "uint256"
        },
        {
          "internalType": "uint256",
          "name": "newMax",
          "type": "uint256"
        }
      ],
      "name": "updateTokenWithRange",
      "outputs": [],
      "stateMutability": "nonpayable",
      "type": "function"
    },
    {
      "inputs": [
        {
          "internalType": "uint256",
          "name": "",
          "type": "uint256"
        }
      ],
      "name": "uri",
      "outputs": [
        {
          "internalType": "string",
          "name": "",
          "type": "string"
        }
      ],
      "stateMutability": "view",
      "type": "function"
    }
  ],
  "bytecode": "0x60806040523480156200001157600080fd5b50604051620039d7380380620039d7833981810160405281019062000037919062000248565b8062000049816200010260201b60201c565b5060006200005c6200011e60201b60201c565b905080600360006101000a81548173ffffffffffffffffffffffffffffffffffffffff021916908373ffffffffffffffffffffffffffffffffffffffff1602179055508073ffffffffffffffffffffffffffffffffffffffff16600073ffffffffffffffffffffffffffffffffffffffff167f8be0079c531659141344cd1fd0a4f28419497f9722a3daafe3b4186f6b6457e060405160405180910390a35050620003be565b80600290805190602001906200011a92919062000126565b5050565b600033905090565b82805462000134906200032a565b90600052602060002090601f016020900481019282620001585760008555620001a4565b82601f106200017357805160ff1916838001178555620001a4565b82800160010185558215620001a4579182015b82811115620001a357825182559160200191906001019062000186565b5b509050620001b39190620001b7565b5090565b5b80821115620001d2576000816000905550600101620001b8565b5090565b6000620001ed620001e784620002c1565b6200028d565b9050828152602081018484840111156200020657600080fd5b62000213848285620002f4565b509392505050565b600082601f8301126200022d57600080fd5b81516200023f848260208601620001d6565b91505092915050565b6000602082840312156200025b57600080fd5b600082015167ffffffffffffffff8111156200027657600080fd5b62000284848285016200021b565b91505092915050565b6000604051905081810181811067ffffffffffffffff82111715620002b757620002b66200038f565b5b8060405250919050565b600067ffffffffffffffff821115620002df57620002de6200038f565b5b601f19601f8301169050602081019050919050565b60005b8381101562000314578082015181840152602081019050620002f7565b8381111562000324576000848401525b50505050565b600060028204905060018216806200034357607f821691505b602082108114156200035a576200035962000360565b5b50919050565b7f4e487b7100000000000000000000000000000000000000000000000000000000600052602260045260246000fd5b7f4e487b7100000000000000000000000000000000000000000000000000000000600052604160045260246000fd5b61360980620003ce6000396000f3fe608060405234801561001057600080fd5b50600436106101365760003560e01c8063715018a6116100b8578063cfeaf3701161007c578063cfeaf37014610361578063d58778d61461037d578063e985e9c5146103ad578063eb685c47146103dd578063f242432a146103f9578063f2fde38b1461041557610136565b8063715018a6146102d15780638da5cb5b146102db5780639c6cd4ec146102f9578063a22cb46514610315578063bc31c1c11461033157610136565b80632693ebf2116100ff5780632693ebf2146102195780632eb2c2d61461024957806336e9b344146102655780634e1273f4146102835780635af4cafb146102b357610136565b8062fdd58e1461013b57806301ffc9a71461016b57806302fe53051461019b5780630e89341c146101b757806323b57928146101e7575b600080fd5b61015560048036038101906101509190612427565b610431565b604051610162919061302f565b60405180910390f35b610185600480360381019061018091906124cf565b6104fa565b6040516101929190612ded565b60405180910390f35b6101b560048036038101906101b09190612521565b6105dc565b005b6101d160048036038101906101cc9190612562565b610664565b6040516101de9190612e4d565b60405180910390f35b61020160048036038101906101fc9190612562565b6106f8565b60405161021093929190613073565b60405180910390f35b610233600480360381019061022e9190612562565b61072f565b604051610240919061302f565b60405180910390f35b610263600480360381019061025e919061229d565b610747565b005b61026d610b3d565b60405161027a919061302f565b60405180910390f35b61029d60048036038101906102989190612463565b610b43565b6040516102aa9190612d94565b60405180910390f35b6102bb610cf4565b6040516102c8919061302f565b60405180910390f35b6102d9610cfa565b005b6102e3610e37565b6040516102f09190612cb7565b60405180910390f35b610313600480360381019061030e919061258b565b610e61565b005b61032f600480360381019061032a91906123eb565b611029565b005b61034b60048036038101906103469190612562565b6111aa565b604051610358919061302f565b60405180910390f35b61037b600480360381019061037691906125c7565b6111c2565b005b61039760048036038101906103929190612562565b61135d565b6040516103a4919061302f565b60405180910390f35b6103c760048036038101906103c29190612261565b611381565b6040516103d49190612ded565b60405180910390f35b6103f760048036038101906103f2919061258b565b611415565b005b610413600480360381019061040e919061235c565b61155f565b005b61042f600480360381019061042a9190612238565b611877565b005b60008073ffffffffffffffffffffffffffffffffffffffff168373ffffffffffffffffffffffffffffffffffffffff1614156104a2576040517f08c379a000000000000000000000000000000000000000000000000000000000815260040161049990612eaf565b60405180910390fd5b60008083815260200190815260200160002060008473ffffffffffffffffffffffffffffffffffffffff1673ffffffffffffffffffffffffffffffffffffffff16815260200190815260200160002054905092915050565b60007fd9b67a26000000000000000000000000000000000000000000000000000000007bffffffffffffffffffffffffffffffffffffffffffffffffffffffff1916827bffffffffffffffffffffffffffffffffffffffffffffffffffffffff191614806105c557507f0e89341c000000000000000000000000000000000000000000000000000000007bffffffffffffffffffffffffffffffffffffffffffffffffffffffff1916827bffffffffffffffffffffffffffffffffffffffffffffffffffffffff1916145b806105d557506105d482611a23565b5b9050919050565b6105e4611a8d565b73ffffffffffffffffffffffffffffffffffffffff16610602610e37565b73ffffffffffffffffffffffffffffffffffffffff1614610658576040517f08c379a000000000000000000000000000000000000000000000000000000000815260040161064f90612f6f565b60405180910390fd5b61066181611a95565b50565b6060600280546106739061339b565b80601f016020809104026020016040519081016040528092919081815260200182805461069f9061339b565b80156106ec5780601f106106c1576101008083540402835291602001916106ec565b820191906000526020600020905b8154815290600101906020018083116106cf57829003601f168201915b50505050509050919050565b60086020528060005260406000206000915090508060000154908060010154908060020160009054906101000a900460ff16905083565b60096020528060005260406000206000915090505481565b815183511461078b576040517f08c379a00000000000000000000000000000000000000000000000000000000081526004016107829061300f565b60405180910390fd5b600073ffffffffffffffffffffffffffffffffffffffff168473ffffffffffffffffffffffffffffffffffffffff1614156107fb576040517f08c379a00000000000000000000000000000000000000000000000000000000081526004016107f290612f0f565b60405180910390fd5b610803611a8d565b73ffffffffffffffffffffffffffffffffffffffff168573ffffffffffffffffffffffffffffffffffffffff161480610849575061084885610843611a8d565b611381565b5b610888576040517f08c379a000000000000000000000000000000000000000000000000000000000815260040161087f90612f2f565b60405180910390fd5b6000610892611a8d565b90506108a2818787878787611aaf565b60005b8451811015610aa85760008582815181106108e9577f4e487b7100000000000000000000000000000000000000000000000000000000600052603260045260246000fd5b60200260200101519050600085838151811061092e577f4e487b7100000000000000000000000000000000000000000000000000000000600052603260045260246000fd5b60200260200101519050600080600084815260200190815260200160002060008b73ffffffffffffffffffffffffffffffffffffffff1673ffffffffffffffffffffffffffffffffffffffff168152602001908152602001600020549050818110156109cf576040517f08c379a00000000000000000000000000000000000000000000000000000000081526004016109c690612f4f565b60405180910390fd5b81816109db919061329f565b60008085815260200190815260200160002060008c73ffffffffffffffffffffffffffffffffffffffff1673ffffffffffffffffffffffffffffffffffffffff168152602001908152602001600020819055508160008085815260200190815260200160002060008b73ffffffffffffffffffffffffffffffffffffffff1673ffffffffffffffffffffffffffffffffffffffff1681526020019081526020016000206000828254610a8d9190613249565b9250508190555050505080610aa1906133cd565b90506108a5565b508473ffffffffffffffffffffffffffffffffffffffff168673ffffffffffffffffffffffffffffffffffffffff168273ffffffffffffffffffffffffffffffffffffffff167f4a39dc06d4c0dbc64b70af90fd698a233a518aa5d07e595d983b8c0526c8f7fb8787604051610b1f929190612db6565b60405180910390a4610b35818787878787611ab7565b505050505050565b60045481565b60608151835114610b89576040517f08c379a0000000000000000000000000000000000000000000000000000000008152600401610b8090612fef565b60405180910390fd5b6000835167ffffffffffffffff811115610bcc577f4e487b7100000000000000000000000000000000000000000000000000000000600052604160045260246000fd5b604051908082528060200260200182016040528015610bfa5781602001602082028036833780820191505090505b50905060005b8451811015610ce957610c93858281518110610c45577f4e487b7100000000000000000000000000000000000000000000000000000000600052603260045260246000fd5b6020026020010151858381518110610c86577f4e487b7100000000000000000000000000000000000000000000000000000000600052603260045260246000fd5b6020026020010151610431565b828281518110610ccc577f4e487b7100000000000000000000000000000000000000000000000000000000600052603260045260246000fd5b60200260200101818152505080610ce2906133cd565b9050610c00565b508091505092915050565b60055481565b610d02611a8d565b73ffffffffffffffffffffffffffffffffffffffff16610d20610e37565b73ffffffffffffffffffffffffffffffffffffffff1614610d76576040517f08c379a0000000000000000000000000000000000000000000000000000000008152600401610d6d90612f6f565b60405180910390fd5b600073ffffffffffffffffffffffffffffffffffffffff16600360009054906101000a900473ffffffffffffffffffffffffffffffffffffffff1673ffffffffffffffffffffffffffffffffffffffff167f8be0079c531659141344cd1fd0a4f28419497f9722a3daafe3b4186f6b6457e060405160405180910390a36000600360006101000a81548173ffffffffffffffffffffffffffffffffffffffff021916908373ffffffffffffffffffffffffffffffffffffffff160217905550565b6000600360009054906101000a900473ffffffffffffffffffffffffffffffffffffffff16905090565b610e69611a8d565b73ffffffffffffffffffffffffffffffffffffffff16610e87610e37565b73ffffffffffffffffffffffffffffffffffffffff1614610edd576040517f08c379a0000000000000000000000000000000000000000000000000000000008152600401610ed490612f6f565b60405180910390fd5b80821415610f20576040517f08c379a0000000000000000000000000000000000000000000000000000000008152600401610f1790612faf565b60405180910390fd5b60046000815480929190610f33906133cd565b919050555060066004549080600181540180825580915050600190039060005260206000200160009091909190915055604051806060016040528083815260200182815260200160011515815250600860006004548152602001908152602001600020600082015181600001556020820151816001015560408201518160020160006101000a81548160ff0219169083151502179055509050506004543373ffffffffffffffffffffffffffffffffffffffff167ff221001f6e4377cdb8deeb1cbd7868612effc3e75f73ae62189060eba58be38c600080868660405161101d9493929190612e08565b60405180910390a35050565b8173ffffffffffffffffffffffffffffffffffffffff16611048611a8d565b73ffffffffffffffffffffffffffffffffffffffff16141561109f576040517f08c379a000000000000000000000000000000000000000000000000000000000815260040161109690612fcf565b60405180910390fd5b80600160006110ac611a8d565b73ffffffffffffffffffffffffffffffffffffffff1673ffffffffffffffffffffffffffffffffffffffff16815260200190815260200160002060008473ffffffffffffffffffffffffffffffffffffffff1673ffffffffffffffffffffffffffffffffffffffff16815260200190815260200160002060006101000a81548160ff0219169083151502179055508173ffffffffffffffffffffffffffffffffffffffff16611159611a8d565b73ffffffffffffffffffffffffffffffffffffffff167f17307eab39ab6107e8899845ad3d59bd9653f200f220920489ca2b5937696c318360405161119e9190612ded565b60405180910390a35050565b60076020528060005260406000206000915090505481565b6111ca611a8d565b73ffffffffffffffffffffffffffffffffffffffff166111e8610e37565b73ffffffffffffffffffffffffffffffffffffffff161461123e576040517f08c379a000000000000000000000000000000000000000000000000000000000815260040161123590612f6f565b60405180910390fd5b6008600084815260200190815260200160002060020160009054906101000a900460ff166112a1576040517f08c379a000000000000000000000000000000000000000000000000000000000815260040161129890612f8f565b60405180910390fd5b823373ffffffffffffffffffffffffffffffffffffffff167ff221001f6e4377cdb8deeb1cbd7868612effc3e75f73ae62189060eba58be38c60086000878152602001908152602001600020600001546008600088815260200190815260200160002060010154868660405161131a94939291906130aa565b60405180910390a3816008600085815260200190815260200160002060000181905550806008600085815260200190815260200160002060010181905550505050565b6006818154811061136d57600080fd5b906000526020600020016000915090505481565b6000600160008473ffffffffffffffffffffffffffffffffffffffff1673ffffffffffffffffffffffffffffffffffffffff16815260200190815260200160002060008373ffffffffffffffffffffffffffffffffffffffff1673ffffffffffffffffffffffffffffffffffffffff16815260200190815260200160002060009054906101000a900460ff16905092915050565b61141d611a8d565b73ffffffffffffffffffffffffffffffffffffffff1661143b610e37565b73ffffffffffffffffffffffffffffffffffffffff1614611491576040517f08c379a000000000000000000000000000000000000000000000000000000000815260040161148890612f6f565b60405180910390fd5b6008600083815260200190815260200160002060020160009054906101000a900460ff166114f4576040517f08c379a00000000000000000000000000000000000000000000000000000000081526004016114eb90612f8f565b60405180910390fd5b806007600084815260200190815260200160002081905550813373ffffffffffffffffffffffffffffffffffffffff167f62e2c9c75b287778c0b58f1c1d83fa8f9978a33848e0b423735fd44f48ebe3c183604051611553919061302f565b60405180910390a35050565b600073ffffffffffffffffffffffffffffffffffffffff168473ffffffffffffffffffffffffffffffffffffffff1614156115cf576040517f08c379a00000000000000000000000000000000000000000000000000000000081526004016115c690612f0f565b60405180910390fd5b6115d7611a8d565b73ffffffffffffffffffffffffffffffffffffffff168573ffffffffffffffffffffffffffffffffffffffff16148061161d575061161c85611617611a8d565b611381565b5b61165c576040517f08c379a000000000000000000000000000000000000000000000000000000000815260040161165390612eef565b60405180910390fd5b6000611666611a8d565b905061168681878761167788611c87565b61168088611c87565b87611aaf565b600080600086815260200190815260200160002060008873ffffffffffffffffffffffffffffffffffffffff1673ffffffffffffffffffffffffffffffffffffffff1681526020019081526020016000205490508381101561171d576040517f08c379a000000000000000000000000000000000000000000000000000000000815260040161171490612f4f565b60405180910390fd5b8381611729919061329f565b60008087815260200190815260200160002060008973ffffffffffffffffffffffffffffffffffffffff1673ffffffffffffffffffffffffffffffffffffffff168152602001908152602001600020819055508360008087815260200190815260200160002060008873ffffffffffffffffffffffffffffffffffffffff1673ffffffffffffffffffffffffffffffffffffffff16815260200190815260200160002060008282546117db9190613249565b925050819055508573ffffffffffffffffffffffffffffffffffffffff168773ffffffffffffffffffffffffffffffffffffffff168373ffffffffffffffffffffffffffffffffffffffff167fc3d58168c5ae7397731d063d5bbf3d657854427343f4c083240f7aacaa2d0f62888860405161185892919061304a565b60405180910390a461186e828888888888611d4d565b50505050505050565b61187f611a8d565b73ffffffffffffffffffffffffffffffffffffffff1661189d610e37565b73ffffffffffffffffffffffffffffffffffffffff16146118f3576040517f08c379a00000000000000000000000000000000000000000000000000000000081526004016118ea90612f6f565b60405180910390fd5b600073ffffffffffffffffffffffffffffffffffffffff168173ffffffffffffffffffffffffffffffffffffffff161415611963576040517f08c379a000000000000000000000000000000000000000000000000000000000815260040161195a90612ecf565b60405180910390fd5b8073ffffffffffffffffffffffffffffffffffffffff16600360009054906101000a900473ffffffffffffffffffffffffffffffffffffffff1673ffffffffffffffffffffffffffffffffffffffff167f8be0079c531659141344cd1fd0a4f28419497f9722a3daafe3b4186f6b6457e060405160405180910390a380600360006101000a81548173ffffffffffffffffffffffffffffffffffffffff021916908373ffffffffffffffffffffffffffffffffffffffff16021790555050565b60007f01ffc9a7000000000000000000000000000000000000000000000000000000007bffffffffffffffffffffffffffffffffffffffffffffffffffffffff1916827bffffffffffffffffffffffffffffffffffffffffffffffffffffffff1916149050919050565b600033905090565b8060029080519060200190611aab929190611f30565b5050565b505050505050565b611ad68473ffffffffffffffffffffffffffffffffffffffff16611f1d565b15611c7f578373ffffffffffffffffffffffffffffffffffffffff1663bc197c8187878686866040518663ffffffff1660e01b8152600401611b1c959493929190612cd2565b602060405180830381600087803b158015611b3657600080fd5b505af1925050508015611b6757506040513d601f19601f82011682018060405250810190611b6491906124f8565b60015b611bf657611b736134c1565b80611b7e5750611bbb565b806040517f08c379a0000000000000000000000000000000000000000000000000000000008152600401611bb29190612e4d565b60405180910390fd5b6040517f08c379a0000000000000000000000000000000000000000000000000000000008152600401611bed90612e6f565b60405180910390fd5b63bc197c8160e01b7bffffffffffffffffffffffffffffffffffffffffffffffffffffffff1916817bffffffffffffffffffffffffffffffffffffffffffffffffffffffff191614611c7d576040517f08c379a0000000000000000000000000000000000000000000000000000000008152600401611c7490612e8f565b60405180910390fd5b505b505050505050565b60606000600167ffffffffffffffff811115611ccc577f4e487b7100000000000000000000000000000000000000000000000000000000600052604160045260246000fd5b604051908082528060200260200182016040528015611cfa5781602001602082028036833780820191505090505b5090508281600081518110611d38577f4e487b7100000000000000000000000000000000000000000000000000000000600052603260045260246000fd5b60200260200101818152505080915050919050565b611d6c8473ffffffffffffffffffffffffffffffffffffffff16611f1d565b15611f15578373ffffffffffffffffffffffffffffffffffffffff1663f23a6e6187878686866040518663ffffffff1660e01b8152600401611db2959493929190612d3a565b602060405180830381600087803b158015611dcc57600080fd5b505af1925050508015611dfd57506040513d601f19601f82011682018060405250810190611dfa91906124f8565b60015b611e8c57611e096134c1565b80611e145750611e51565b806040517f08c379a0000000000000000000000000000000000000000000000000000000008152600401611e489190612e4d565b60405180910390fd5b6040517f08c379a0000000000000000000000000000000000000000000000000000000008152600401611e8390612e6f565b60405180910390fd5b63f23a6e6160e01b7bffffffffffffffffffffffffffffffffffffffffffffffffffffffff1916817bffffffffffffffffffffffffffffffffffffffffffffffffffffffff191614611f13576040517f08c379a0000000000000000000000000000000000000000000000000000000008152600401611f0a90612e8f565b60405180910390fd5b505b505050505050565b600080823b905060008111915050919050565b828054611f3c9061339b565b90600052602060002090601f016020900481019282611f5e5760008555611fa5565b82601f10611f7757805160ff1916838001178555611fa5565b82800160010185558215611fa5579182015b82811115611fa4578251825591602001919060010190611f89565b5b509050611fb29190611fb6565b5090565b5b80821115611fcf576000816000905550600101611fb7565b5090565b6000611fe6611fe184613120565b6130ef565b9050808382526020820190508285602086028201111561200557600080fd5b60005b85811015612035578161201b8882612127565b845260208401935060208301925050600181019050612008565b5050509392505050565b600061205261204d8461314c565b6130ef565b9050808382526020820190508285602086028201111561207157600080fd5b60005b858110156120a157816120878882612223565b845260208401935060208301925050600181019050612074565b5050509392505050565b60006120be6120b984613178565b6130ef565b9050828152602081018484840111156120d657600080fd5b6120e1848285613359565b509392505050565b60006120fc6120f7846131a8565b6130ef565b90508281526020810184848401111561211457600080fd5b61211f848285613359565b509392505050565b60008135905061213681613577565b92915050565b600082601f83011261214d57600080fd5b813561215d848260208601611fd3565b91505092915050565b600082601f83011261217757600080fd5b813561218784826020860161203f565b91505092915050565b60008135905061219f8161358e565b92915050565b6000813590506121b4816135a5565b92915050565b6000815190506121c9816135a5565b92915050565b600082601f8301126121e057600080fd5b81356121f08482602086016120ab565b91505092915050565b600082601f83011261220a57600080fd5b813561221a8482602086016120e9565b91505092915050565b600081359050612232816135bc565b92915050565b60006020828403121561224a57600080fd5b600061225884828501612127565b91505092915050565b6000806040838503121561227457600080fd5b600061228285828601612127565b925050602061229385828601612127565b9150509250929050565b600080600080600060a086880312156122b557600080fd5b60006122c388828901612127565b95505060206122d488828901612127565b945050604086013567ffffffffffffffff8111156122f157600080fd5b6122fd88828901612166565b935050606086013567ffffffffffffffff81111561231a57600080fd5b61232688828901612166565b925050608086013567ffffffffffffffff81111561234357600080fd5b61234f888289016121cf565b9150509295509295909350565b600080600080600060a0868803121561237457600080fd5b600061238288828901612127565b955050602061239388828901612127565b94505060406123a488828901612223565b93505060606123b588828901612223565b925050608086013567ffffffffffffffff8111156123d257600080fd5b6123de888289016121cf565b9150509295509295909350565b600080604083850312156123fe57600080fd5b600061240c85828601612127565b925050602061241d85828601612190565b9150509250929050565b6000806040838503121561243a57600080fd5b600061244885828601612127565b925050602061245985828601612223565b9150509250929050565b6000806040838503121561247657600080fd5b600083013567ffffffffffffffff81111561249057600080fd5b61249c8582860161213c565b925050602083013567ffffffffffffffff8111156124b957600080fd5b6124c585828601612166565b9150509250929050565b6000602082840312156124e157600080fd5b60006124ef848285016121a5565b91505092915050565b60006020828403121561250a57600080fd5b6000612518848285016121ba565b91505092915050565b60006020828403121561253357600080fd5b600082013567ffffffffffffffff81111561254d57600080fd5b612559848285016121f9565b91505092915050565b60006020828403121561257457600080fd5b600061258284828501612223565b91505092915050565b6000806040838503121561259e57600080fd5b60006125ac85828601612223565b92505060206125bd85828601612223565b9150509250929050565b6000806000606084860312156125dc57600080fd5b60006125ea86828701612223565b93505060206125fb86828701612223565b925050604061260c86828701612223565b9150509250925092565b60006126228383612c99565b60208301905092915050565b612637816132d3565b82525050565b6000612648826131e8565b6126528185613216565b935061265d836131d8565b8060005b8381101561268e5781516126758882612616565b975061268083613209565b925050600181019050612661565b5085935050505092915050565b6126a4816132e5565b82525050565b60006126b5826131f3565b6126bf8185613227565b93506126cf818560208601613368565b6126d8816134a3565b840191505092915050565b6126ec81613347565b82525050565b60006126fd826131fe565b6127078185613238565b9350612717818560208601613368565b612720816134a3565b840191505092915050565b6000612738603483613238565b91507f455243313135353a207472616e7366657220746f206e6f6e204552433131353560008301527f526563656976657220696d706c656d656e7465720000000000000000000000006020830152604082019050919050565b600061279e602883613238565b91507f455243313135353a204552433131353552656365697665722072656a6563746560008301527f6420746f6b656e730000000000000000000000000000000000000000000000006020830152604082019050919050565b6000612804602b83613238565b91507f455243313135353a2062616c616e636520717565727920666f7220746865207a60008301527f65726f20616464726573730000000000000000000000000000000000000000006020830152604082019050919050565b600061286a602683613238565b91507f4f776e61626c653a206e6577206f776e657220697320746865207a65726f206160008301527f64647265737300000000000000000000000000000000000000000000000000006020830152604082019050919050565b60006128d0602983613238565b91507f455243313135353a2063616c6c6572206973206e6f74206f776e6572206e6f7260008301527f20617070726f76656400000000000000000000000000000000000000000000006020830152604082019050919050565b6000612936602583613238565b91507f455243313135353a207472616e7366657220746f20746865207a65726f20616460008301527f64726573730000000000000000000000000000000000000000000000000000006020830152604082019050919050565b600061299c603283613238565b91507f455243313135353a207472616e736665722063616c6c6572206973206e6f742060008301527f6f776e6572206e6f7220617070726f76656400000000000000000000000000006020830152604082019050919050565b6000612a02602a83613238565b91507f455243313135353a20696e73756666696369656e742062616c616e636520666f60008301527f72207472616e73666572000000000000000000000000000000000000000000006020830152604082019050919050565b6000612a68602083613238565b91507f4f776e61626c653a2063616c6c6572206973206e6f7420746865206f776e65726000830152602082019050919050565b6000612aa8602483613238565b91507f4552433131353546696e616c3a20746f6b656e496420646f6573206e6f74206560008301527f78697374000000000000000000000000000000000000000000000000000000006020830152604082019050919050565b6000612b0e602883613238565b91507f4552433131353546696e616c3a206d696e2063616e6e6f74206265206571756160008301527f6c20746f206d61780000000000000000000000000000000000000000000000006020830152604082019050919050565b6000612b74602983613238565b91507f455243313135353a2073657474696e6720617070726f76616c2073746174757360008301527f20666f722073656c6600000000000000000000000000000000000000000000006020830152604082019050919050565b6000612bda602983613238565b91507f455243313135353a206163636f756e747320616e6420696473206c656e67746860008301527f206d69736d6174636800000000000000000000000000000000000000000000006020830152604082019050919050565b6000612c40602883613238565b91507f455243313135353a2069647320616e6420616d6f756e7473206c656e6774682060008301527f6d69736d617463680000000000000000000000000000000000000000000000006020830152604082019050919050565b612ca28161333d565b82525050565b612cb18161333d565b82525050565b6000602082019050612ccc600083018461262e565b92915050565b600060a082019050612ce7600083018861262e565b612cf4602083018761262e565b8181036040830152612d06818661263d565b90508181036060830152612d1a818561263d565b90508181036080830152612d2e81846126aa565b90509695505050505050565b600060a082019050612d4f600083018861262e565b612d5c602083018761262e565b612d696040830186612ca8565b612d766060830185612ca8565b8181036080830152612d8881846126aa565b90509695505050505050565b60006020820190508181036000830152612dae818461263d565b905092915050565b60006040820190508181036000830152612dd0818561263d565b90508181036020830152612de4818461263d565b90509392505050565b6000602082019050612e02600083018461269b565b92915050565b6000608082019050612e1d60008301876126e3565b612e2a60208301866126e3565b612e376040830185612ca8565b612e446060830184612ca8565b95945050505050565b60006020820190508181036000830152612e6781846126f2565b905092915050565b60006020820190508181036000830152612e888161272b565b9050919050565b60006020820190508181036000830152612ea881612791565b9050919050565b60006020820190508181036000830152612ec8816127f7565b9050919050565b60006020820190508181036000830152612ee88161285d565b9050919050565b60006020820190508181036000830152612f08816128c3565b9050919050565b60006020820190508181036000830152612f2881612929565b9050919050565b60006020820190508181036000830152612f488161298f565b9050919050565b60006020820190508181036000830152612f68816129f5565b9050919050565b60006020820190508181036000830152612f8881612a5b565b9050919050565b60006020820190508181036000830152612fa881612a9b565b9050919050565b60006020820190508181036000830152612fc881612b01565b9050919050565b60006020820190508181036000830152612fe881612b67565b9050919050565b6000602082019050818103600083015261300881612bcd565b9050919050565b6000602082019050818103600083015261302881612c33565b9050919050565b60006020820190506130446000830184612ca8565b92915050565b600060408201905061305f6000830185612ca8565b61306c6020830184612ca8565b9392505050565b60006060820190506130886000830186612ca8565b6130956020830185612ca8565b6130a2604083018461269b565b949350505050565b60006080820190506130bf6000830187612ca8565b6130cc6020830186612ca8565b6130d96040830185612ca8565b6130e66060830184612ca8565b95945050505050565b6000604051905081810181811067ffffffffffffffff8211171561311657613115613474565b5b8060405250919050565b600067ffffffffffffffff82111561313b5761313a613474565b5b602082029050602081019050919050565b600067ffffffffffffffff82111561316757613166613474565b5b602082029050602081019050919050565b600067ffffffffffffffff82111561319357613192613474565b5b601f19601f8301169050602081019050919050565b600067ffffffffffffffff8211156131c3576131c2613474565b5b601f19601f8301169050602081019050919050565b6000819050602082019050919050565b600081519050919050565b600081519050919050565b600081519050919050565b6000602082019050919050565b600082825260208201905092915050565b600082825260208201905092915050565b600082825260208201905092915050565b60006132548261333d565b915061325f8361333d565b9250827fffffffffffffffffffffffffffffffffffffffffffffffffffffffffffffffff0382111561329457613293613416565b5b828201905092915050565b60006132aa8261333d565b91506132b58361333d565b9250828210156132c8576132c7613416565b5b828203905092915050565b60006132de8261331d565b9050919050565b60008115159050919050565b60007fffffffff0000000000000000000000000000000000000000000000000000000082169050919050565b600073ffffffffffffffffffffffffffffffffffffffff82169050919050565b6000819050919050565b60006133528261333d565b9050919050565b82818337600083830152505050565b60005b8381101561338657808201518184015260208101905061336b565b83811115613395576000848401525b50505050565b600060028204905060018216806133b357607f821691505b602082108114156133c7576133c6613445565b5b50919050565b60006133d88261333d565b91507fffffffffffffffffffffffffffffffffffffffffffffffffffffffffffffffff82141561340b5761340a613416565b5b600182019050919050565b7f4e487b7100000000000000000000000000000000000000000000000000000000600052601160045260246000fd5b7f4e487b7100000000000000000000000000000000000000000000000000000000600052602260045260246000fd5b7f4e487b7100000000000000000000000000000000000000000000000000000000600052604160045260246000fd5b6000601f19601f8301169050919050565b60008160e01c9050919050565b600060443d10156134d157613574565b60046000803e6134e26000516134b4565b6308c379a081146134f35750613574565b60405160043d036004823e80513d602482011167ffffffffffffffff8211171561351f57505050613574565b808201805167ffffffffffffffff81111561353e575050505050613574565b8060208301013d850181111561355957505050505050613574565b613562826134a3565b60208401016040528296505050505050505b90565b613580816132d3565b811461358b57600080fd5b50565b613597816132e5565b81146135a257600080fd5b50565b6135ae816132f1565b81146135b957600080fd5b50565b6135c58161333d565b81146135d057600080fd5b5056fea2646970667358221220486c90358bb4859a9c8004555b4cb5dae5abf5f9e8c63ce14f791dc9a30c9d7064736f6c63430008000033",
  "linkReferences": {},
  "deployedLinkReferences": {}
}